:100000000C94D1010C94EE010C94EE010C94EE01D1
:100010000C94EE010C94EE010C94EE010C94EE01A4
:100020000C94EE010C94EE010C94DC210C94B022A3
:100030000C94701C0C94EE010C94EE010C94EE01E7
:100040000C94EE010C94EE010C94EE010C94EE0174
:100050000C94EE010C94F71C0C94EE010C94EE0140
:100060000C94EE010C94EE010C94EE010C94EE0154
:100070000C94EE010C94EE010C94EE010C94EE0144
:100080000C94EE010C94EE010C94EE010C94EE0134
:100090000C94EE010C94EE010C94EE010C94EE0124
:1000A0000C94EE010C94EE010C94EE01DA00D900F0
:1000B00000000000237824780000000027782878CA
:1000C0000000000021782278000000005F0060003E
:1000D00061002A005C005D005E00290059005A00A2
:1000E0005B002B00C1526200630028000100010088
:1000F00001000100010001000100010001000100F8
:1001000001000100010001000100010001000100E7
:1001100001000100010001000100010001000100D7
:1001200001000100010001000100010001000100C7
:1001300001000100010001000100010001000100B7
:1001400001000100010001000100010000000000A9
:10015000000000002A2B2800000000000000000022
:100160000000000000000029000000002C1E3420C8
:10017000212224342627252E362D3738271E1F20EE
:100180002122232425263333362E37381F04050633
:100190000708090A0B0C0D0E0F1011121314151677
:1001A0001718191A1B1C1D2F3130232D3504050675
:1001B0000708090A0B0C0D0E0F1011121314151657
:1001C0001718191A1B1C1D2F3130354C0000000068
:1001D000000000000000000000000000000000001F
:1001E000000000000000000000000000000000000F
:1001F0007E0F00D4FFFFFFC7000000780E035600FB
:100200004F00490044003100360000000A03560048
:100210004F004900440000000403090409025B0088
:10022000030100A0FA0904000001030101000921F3
:1002300011010001224000070581030800010904A3
:100240000100020300000009211101000122220027
:1002500007058203200001070503032000010904AC
:100260000200010300000009211101000122B60073
:100270000705840320000112010002000000085558
:10028000F033350001010200010660FF0961A101A0
:100290000962150026FF0095207508810209631583
:1002A0000026FF00952075089102C005010902A1F2
:1002B0000185020901A10005091901290815002578
:1002C0000195087501810205010930093115812563
:1002D0007F95027508810609381581257F9501757E
:1002E000088106050C0A38021581257F95017508DD
:1002F0008106C0C005010980A101850319012AB743
:1003000000150126B700950175108100C0050C0984
:1003100001A101850419012AA002150126A0029558
:100320000175108100C005010906A10185060507B8
:1003300019E029E7150025019508750181020507D7
:10034000190029EF1500250195F0750181020508B6
:100350001901290595057501910295017503910112
:10036000C005010906A101050719E029E7150025C7
:10037000019508750181029501750881010507192C
:100380000029FF150026FF00950675088100050865
:1003900019012905950575019102950175039101D2
:1003A000C00011241FBECFEFDAE0DEBFCDBF11E0E9
:1003B000A0E0B1E0E2EEFAE402C005900D92A83AA6
:1003C000B107D9F722E0A8EAB1E001C01D92AA3A2C
:1003D000B207E1F70E94CE100C941B250C9400008C
:1003E00084E008958430B8F46430A8F4443098F47C
:1003F00094E0899FF0011124E60FF11DEE0FFF1F1D
:10040000EE0FFF1FE40FF11DEE0FFF1FE453FF4F30
:1004100085919491089580E090E0089584E0089596
:100420008430B8F46230A8F4E82FF0E0EE0FFF1F3C
:100430006E0F7F2F711D660F771FE1E0E427E60F37
:10044000F72FF11DEE0FFF1FE455FF4F859194919B
:10045000089580E090E0089581E0089581E0089596
:100460000E942E02089508950E9433020895A5E087
:10047000B0E0EDE3F2E00C94872449835A83309195
:10048000AF0189819A81311119C0662399F0222325
:1004900089F00E94DE07182F682F89819A810E94B7
:1004A000AC0769817A81812F0E944E0E2596E3E088
:1004B0000C94A3240E94C507182FF3CF0E94DE07D7
:1004C00069817A81F1CFFC01262F408151816281BF
:1004D000738184810E943702089581E00895CF934B
:1004E000DF93EC0160E00E946302BE010E943402CF
:1004F000DF91CF910895E1E0F0E0DF0102C0AA0FA3
:10050000BB1F6A95E2F7BD01DF0102C0AA0FBB1F46
:100510004A95E2F76A2B01C0EE0F2A95EAF7962F6B
:100520009823961302C08E2B0895E0958E2308958C
:10053000242F462F682F8091B9010E947B020E94D0
:100540000E0708950E94890F08950E948D0F089547
:1005500008950E94A2060E94A8022FEF84E39CE067
:10056000215080409040E1F700C0000008950E94B3
:10057000A9020E941B1D08950E94A9020E942C1D21
:1005800008950F931F93CF93DF938C0161E00E9436
:100590006302EC01B8010E94C513811106C080E01E
:1005A000DF91CF911F910F910895B801CE010E9464
:1005B00030028823A1F3B801CE010E94921A882349
:1005C00071F3B801CE010E94E314882341F3B8010E
:1005D000CE010E94041A882311F3F8018281882336
:1005E00061F0C330FCE7DF07E9F058F4C115ECE730
:1005F000DE07A9F0C130DC47B9F0C8010E942C0227
:10060000CFCFCB358CE7D807A9F0CC35ECE7DE07A8
:1006100071F0CA35DC4789F70E94DB0BEECF0E94F0
:10062000B702BDCF0E94E30B0E94BC02B8CF0E946C
:10063000D10BE3CF0E94DF0BE0CF0E944D1C0E9444
:10064000470308950E944B030E94521C0895089589
:100650000E942703089581E008950895CF93DF93C2
:10066000D82F0E942B03C82F882319F08D2F0E94AA
:100670002D038C2FDF91CF9108950895CF93C82F2C
:100680000E9428038C2F0E942E03CF91089580E0B2
:100690000E943E0308950E94E01A0E943E030895BE
:1006A000CF930E94E01AC82F8091AA018C1779F08D
:1006B000C093AA010E94DC1C6093AB017093AC0153
:1006C0008093AD019093AE018C2F0E943E03CF9199
:1006D0000895ABE0B0E0EFE6F3E00C9488244F839C
:1006E000588769877A878B8761110E941C0B1E824D
:1006F0001D8285E0FE013796DE01119601900D9274
:100700008A95E1F78C819D81892B61F449815A8119
:100710006B817C818D819E810E94450A2B96E2E04F
:100720000C94A42489819A8189238F3F79F3CE0187
:1007300001960E946D028111E9CFF0CFFC0180810A
:1007400091810E940B080895662329F00E9452119E
:100750000E94251208950E94AC11FACFCF93C82FA2
:100760008823B9F08CEF8C0F813AA8F46C2F80911C
:100770000001909101010E94731B882329F08C2FA6
:100780000E94DC0A0E943D0B8C2F0E94D40A0E941A
:100790003D0BCF91089580E28C0F883048F4C770EC
:1007A00081E001C0880FCA95EAF70E94FF0AEFCFE7
:1007B000EBE5EC0FE33040F4F0E0EB5BFE4F8081C3
:1007C00090E00E94151BE5CFE8E5EC0FE93150F40D
:1007D000F0E0EE0FFF1FED5EFE4F808191810E94E1
:1007E0003A1BD7CF83E38C0F833198F661E08C2FCF
:1007F0000E94A403CECF882381F19CEF980F913AF9
:1008000028F40E94DC0A0E943D0B089590E2980FA4
:10081000983050F4877091E001C0990F8A95EAF7FB
:10082000892F0E94050BEFCF9BE5980F933028F49A
:1008300090E080E00E94151B089598E5980F99318B
:1008400028F490E080E00E943A1B089593E3980F0B
:10085000933118F460E00E94A40308951F93CF938E
:10086000DF93182FEB010E94AE03209739F4812FFC
:100870000E94FB03DF91CF911F9108958FE99FE0C4
:100880000197F1F700C000002197EFCF70E060E022
:10089000893311F460E570E00E942E0408958823E6
:1008A00021F00E94FF0A0E943D0B0895882321F049
:1008B0000E94050B0E943D0B0895B0E0A0E0E3E626
:1008C000F4E00C9481246C01D62FC72FFC01128117
:1008D000F580F2949FE0F9220E94F50AE82E882321
:1008E000B9F0E12E1123A1F08C2F807F803421F00C
:1008F00080E28D0F8830D0F08091900282FF16C088
:1009000082E00E94A00B0E94F50A91E0E82EE92601
:10091000BC2EB2948FE0B822FBE0FB1508F468C04F
:10092000EB2DF0E0E35EFA4D0C946B24E12CF0CF5C
:100930000C2F0F70C07F11F00295007F112399F0EA
:10094000002359F080E28D0F883010F0D11107C0DC
:10095000802F0E94FF0A0E943D0B8D2F41C0802FE7
:100960000E940F0BF8CF8D2F0E94FB03002309F488
:100970003FC080E28D0F883010F0D11104C0802F6D
:100980000E94050B03C0802F0E94150B0E943D0B97
:100990002FC00C2F0F70C07FC03211F00295007F66
:1009A000DD2381F0D13009F468C0112309F472C04D
:1009B000FF2009F468C0F601858180FFCECF8F70DB
:1009C000858361C08091900282FD33C0112359F06C
:1009D000002329F0802F0E94FF0A0E943D0B80E037
:1009E0000E94AE0305C080E00E94FB030111C7CF47
:1009F000EB2DE850FF0B349720F40E94E01A0E9480
:100A00003E03EE2089F00E94F10A80FD0DC0F60140
:100A100012820E94EB0A0E942007C6010E94620611
:100A20000E94EB0A0E942C07CDB7DEB7E9E00C94D8
:100A30009D24112389F0F11006C00E941F0B802B0A
:100A40000E944F04D5CF21E0F212F7CF0E941F0B76
:100A5000802B0E94260BCCCFF11006C00E94330BD6
:100A6000802F0E945604C4CF31E0F31609F2802F84
:100A70000E9456040E94330BBBCF112331F085E056
:100A80008F1508F4B5CF802FDBCF94E09F1508F4C5
:100A9000AFCFE6CFFF2021F3D93349F4FFEF27EEA4
:100AA00033E0F15020403040E1F700C000008D2FCE
:100AB0000E94FB039DCF8C2F86958695837069F0ED
:100AC000813009F095CF8D2F9C2F9370111102C0AA
:100AD00080E090E00E943A1B8BCF8D2F9C2F93706B
:100AE000111102C080E090E00E94151B81CF612FA0
:100AF0008D2F0E94A4037CCF8C2F837079F5111168
:100B000077CF4D2F429546954770440F440F8D2F58
:100B10008F70042E01C0880F0A94EAF72D2F2071E0
:100B2000D4FF07C02FE030E001C0220F4A95EAF75A
:100B30002095C695C695C370822BC23049F058F4F3
:100B4000C13019F00E94FC0653CF0E94F60650CF28
:100B50000E9402074DCF0E94F3064ACF86951123CB
:100B600011F08C2F8170882309F442CF4D2F4295CC
:100B700046954770440F440F8D2F8F70042E01C08F
:100B8000880F0A94EAF72D2F2071D4FF07C02FE0B9
:100B900030E001C0220F4A95EAF72095C695C69528
:100BA000C370822BC23049F058F4C13019F00E9452
:100BB0004B071ECF0E9445071BCF0E94510718CF3D
:100BC0000E940E0715CFCF70112329F08C2F0E94A1
:100BD00020078D2F35CF8D2F0E9456048C2F0E9419
:100BE0002C0706CFD23F51F160F4D03FB9F0D13F8E
:100BF00081F0112309F449C0F110AFCE8C2F8F7111
:100C000021C0D33F11F1D43FA1F78091900282FD22
:100C100026C08C2F8F71112311F314C0112349F0BA
:100C200084E08F1508F4E4CE8C2F8F710E94390771
:100C3000DFCE95E09F1508F4DBCEF6CF8C2F8F71B9
:100C40001111CDCF0E942007D3CE112329F08C2F74
:100C50008F710E941707CCCE0E941307C9CE1123B3
:100C600049F0CF718C2F0E94200763E08C2F0E94E7
:100C7000820BBECE81E00E94A00BE1E0EF1508F0F0
:100C8000B7CE82E00E94A00BB3CEF11005CF8C2F1F
:100C90008F71A5CF0F931F93CF93DF93EC016881E2
:100CA00079818A810E9416088C010E9457070E9450
:100CB000F206B801CE010E945D04DF91CF911F9131
:100CC0000F910895CF93DF93EC018B819C81892B49
:100CD00029F08881998189238F3F51F4DF91CF9149
:100CE0000895CE010E944A06CE010E946F02F6CFFF
:100CF000CE010E94C1028111F4CF0E94F50A88231F
:100D000069F38A81882351F38091900282FFE6CFB4
:100D100082E00E94A00BE2CF90E080E00E94151BD1
:100D200090E080E00E943A1B0E941C0B0E943D0B49
:100D30000E9441120E94251208950E94E40A0E9416
:100D40008C0608950E940C0B0E949D0608959295B2
:100D50009F70963091F058F4925F9F70923058F4E3
:100D6000803F19F030F4883E30F481E008959A5FB6
:100D7000F4CF843FD1F380E00895883EB0F3813F03
:100D8000D1F7F3CFFC0183819481892B29F08081F5
:100D9000918189238F3F11F480E0089580819181B2
:100DA0000E940B080E94A7060895A5E0B0E0EBEDB5
:100DB000F6E00C9488242596E2E00C94A424A6E0A6
:100DC000B0E0E5EEF6E00C9488242696E2E00C9480
:100DD000A42408950E94E90608950E94EA068093DB
:100DE000BA01089508950E94ED0608959091BA0100
:100DF000892B0E94ED0608959091BA0189230E94E3
:100E0000ED0608959091BA0189270E94ED06089594
:100E10000E94E90608950E94080708950E940B07A2
:100E20008093B901089580E00E940E07089591E033
:100E300001C0990F8A95EAF7892F0E940E0708953D
:100E400021E030E001C0220F8A95EAF78091B901D4
:100E5000822B0E940E07089521E030E001C0220F8E
:100E60008A95EAF720958091B90182230E940E07A6
:100E7000089521E030E001C0220F8A95EAF78091C1
:100E8000B90182270E940E0708959091B901892B1C
:100E90000E940E0708959091B90189230E940E07C0
:100EA00008959091B90189270E940E070895089529
:100EB000262F277091E001C0990F2A95EAF723E0C9
:100EC000769567952A95E1F7FB01EE0FFF1FE60F78
:100ED000F71FE40FF51F50E040E0682F70E08191AC
:100EE000DF0111979B01042E02C0369527950A94C5
:100EF000E2F7217021952827292328272C934F5F7B
:100F00005F4F4330510559F70895A82FA77023E08C
:100F1000969587952A95E1F7FC01EE0FFF1FE80FE4
:100F2000F91FE60FF71F50E040E080E0219130E02C
:100F30000A2E02C0369527950A94E2F721703327CE
:100F4000042E01C0220F0A94EAF7822B4F5F5F4FF5
:100F50004330510559F70895282F862F943068F4AF
:100F6000243050F434E0939FB0011124620F711DBE
:100F700043EB51E00E94580708959C5F9230E0F7E0
:100F8000622F70E040EB51E0F5CF943070F4843084
:100F900098F444E0949F9001112463EB71E0820F78
:100FA000932F911D0E94850708959C5F923020F435
:100FB00060EB71E090E0F6CF80E00895CF92DF9291
:100FC000FF920F931F93CF93DF936C010091B901B0
:100FD0008091BA01082BC7E0D0E010E0FC2EC801D8
:100FE0000C2E02C0959587950A94E2F780FD0CC0FF
:100FF0002197A0F7F12C8F2DDF91CF911F910F91A9
:10100000FF90DF90CF900895B6018C2F0E94670E5D
:10101000019771F3F0CFCF93DF93EC010E94DE07CD
:10102000BE010E94670EDF91CF9108951F93CF9369
:10103000DF93EB019091AF01992339F0CB010E942E
:101040000B08DF91CF911F910895882369F0CB01A0
:101050000E94DE07182F682FCE010E94AC07BE0148
:10106000812F0E94670EEDCFCB010E94C507182F7C
:10107000F6CF1F93CF93DF93C091BB0116E0809111
:10108000BC018C1304C0DF91CF911F910895D0E073
:101090001C9FF0011D9FF00D1124E354FE4F408171
:1010A000518162817381848195810E94DF0621963E
:1010B000C770E5CF4091ED015091EE016091EF01D5
:1010C0007091F0018091F1019091F2010E94DF0690
:1010D00008951F93CF93DF938091F201807F09F0F1
:1010E00049C08091EF01882309F444C08091BB017D
:1010F000C091BC016091ED017091EE01A091F001F1
:10110000B091F101D62FD72316E0C81799F190E0DE
:10111000109711F0DF3F19F401968770F6CF189FF2
:101120009001199F300D1124F901E354FE4F4181C4
:101130004713F2CF40814613EFCF42814111ECCFEC
:10114000438154814A1B5B0B483C510528F7809131
:10115000F2018F7080618093F201F901EE53FE4F2E
:1011600080818F70806180838DEE91E00E946206A5
:101170000E943908DF91CF911F910895A1E1B0E05D
:10118000E4ECF8E00C9480248C0185E0F801DE01A9
:101190001D9601900D928A95E1F7F801E2808DEE9F
:1011A000C82E81E0D82E6091F0017091F101611597
:1011B000710509F44EC19091ED012091EE01892F46
:1011C00082238F3F09F445C140815181A380B480BF
:1011D000F090EF01F501E61BF70BFF2009F4EAC0E0
:1011E0008091F201382F307FE83CF10508F0A3C070
:1011F00031116DC0FE2C251316C0941314C0E110DC
:1012000012C08F7080618093F2010E945A08C6015B
:101210000E9462068091F201F80185838F2D61960C
:10122000EAE00C949C24A114B10429F0842F8523B6
:101230008F3F09F027C180E0F82FF170DF2E80FF8B
:101240003CC08091BB012091BC0136E0821315C0E7
:101250004D875E878D859E850E940B08292F2295DC
:101260002F702230F0F0243018F59F70F1F0F80163
:101270009581907FD1F4D12C1EC090E0389FF00171
:10128000399FF00D1124E354FE4F6181651306C0B0
:101290006081641303C06281E6120FC001968770FB
:1012A000D5CF9F7011F0882331F3805E883018F31A
:1012B000C8010E946206FD2CB1CFEE2009F4AECF2A
:1012C0008091F20181608093F201F12CA7CF251368
:1012D00006C0941304C0F801EE2009F487C0C801C9
:1012E0000E94C206882319F1EE2009F18091F201D3
:1012F000803270F02091ED013091EE0138872F831C
:101300001986BB86AA868C87CE0107960E94620644
:1013100086E0F801ADEEB1E001900D928A95E1F71B
:101320000E9469080E945A08FF24F39477CFC801ED
:101330000E946206F9CF311113C07A2DB98AA88AAA
:101340006E2D89890E94D5068DEE91E00E9462067D
:1013500086E0F60111928A95E9F70E945A08B5CF06
:1013600025130FC094130DC0E1100BC0F801858345
:10137000C8010E94620686E0F60111928A95E9F79B
:101380004DCFC8010E94C206882389F2EE2079F26F
:101390008091F201803208F4BBCF2091ED013091B1
:1013A000EE013A8329831B82BD82AC828E83CE01FB
:1013B0000196ACCFE83CF10508F03EC0FE2CEE20D3
:1013C00009F4B5CF25132AC0941328C08091F201E7
:1013D00080FD1BC0982F907FC1F0F8018583903F5E
:1013E00031F0982F907F905F8F70892B8583C80193
:1013F0000E94620686E0F801ADEEB1E001900D9228
:101400008A95E1F70E945A0809CF86E0F801ADEE0F
:10141000B1E001900D928A95E1F700CFC8010E94DA
:10142000C206811175CF8091F20181608093F20133
:10143000C8010E946206F2CE7A2DB98AA88A6E2D62
:1014400089890E94D50686E0F60111928A95E9F70E
:10145000D9CFEE2009F46BCFC8010E94C206F82E46
:10146000882309F464CF86E0F801ADEEB1E0019085
:101470000D928A95E1F78DEE91E00E949E030E9405
:101480006908C0CF81E08E25D7CEACE0B0E0EBE4B8
:10149000FAE00C9487244F83588769877A878B8773
:1014A0009C87CE0107960E94BE08882369F08A8532
:1014B0009B85892B39F04F815885842F85238F3F59
:1014C00009F06BC016E05FC086E0FE013796DE01D2
:1014D000119601900D928A95E1F78A859B85892B5B
:1014E00089F38F81988589238F3F61F32091BC0117
:1014F00030E0C9010196877099274091BB014817D8
:10150000190671F40E94A2061092BC011092BB0150
:1015100086E0EDEEF1E0DF011D928A95E9F7D2CF8A
:1015200096E0929FD001939FB00D1124A354BE4F1B
:10153000FE01319601900D929A95E1F78093BC01DE
:101540000E943908BFCF819FC001112483549E4F50
:101550000E94BE088823E9F0E091BB011E9FF001C4
:101560001124E354FE4F4081518162817381848153
:1015700095810E94DF068091BB0190E00196877003
:1015800099278093BB018091BB019091BC01891385
:10159000DACF2C96E3E00C94A32469857A858B85B9
:1015A0009C850E94DF068ECF682F8091000190916C
:1015B00001010E94F31B0895682F80910001909112
:1015C00001010E94011C0895809100019091010188
:1015D0000E940F1C0895809113028595859585952D
:1015E0000895809113028770089590911302977067
:1015F00081E009F480E00895809136020895909189
:101600003602892B80933602089580959091360298
:10161000982390933602089510923602089590917F
:101620003502892B8093350208958095909135027B
:101630009823909335020895109235020895809171
:101640001402089508950E94220B0895909190022B
:1016500092FF08C090911402981721F08093140211
:101660000E94230B089580911402882329F0109280
:10167000140280E00E94230B0895CF93DF93E09142
:101680000001F0910101809136028083E091000118
:10169000F0910101808190913502892B8083909196
:1016A0001402992381F0E0910001F0910101808101
:1016B000892B808380910001909101010E945F1B22
:1016C00081110E94330BC0910001D091010140E2D1
:1016D00050E063EF71E0CE010E94C324892B59F0E2
:1016E00080E2FE01A3EFB1E001900D928A95E1F74F
:1016F000CE010E94ED1ADF91CF91089508950E94C6
:101700007E0B08959091900292FF11C098E0899FFE
:1017100090011124622B609313020E942007809194
:1017200013028595859585950E947F0B08950E94EB
:10173000200708951092130280E00E947F0B089505
:10174000909113028095892380931302282F27708C
:1017500091F4282F082E000C330B9217130659F022
:101760009091900292FF07C08595859585950E947E
:101770002C070E949A0B08959091900292FB2227C9
:1017800020F9281769F080FB92F9909390028091DC
:101790008F02909190020E94050C82E00E94A00BA3
:1017A00008958091900282FB882780F991E0892733
:1017B0000E94BC0B089581E00E94BC0B089580E05C
:1017C0000E94BC0B08956FEF7FEF90E080E00E94D5
:1017D0000525089590E080E00E94E124873E9E4F19
:1017E00019F40E945F13089580E0089582E090E06C
:1017F0000E94D924089583E090E00E94D92408959E
:1018000084E090E00E94E1240895BC0184E090E02F
:101810000E9405250895AB01BC018FE090E00E9475
:10182000F9240895AB01BC0183E190E00E94F92402
:10183000089560E070E0CB010E94120C089560E012
:1018400070E0CB010E940B0C0E94190C089567EE0A
:101850007EEF90E080E00E94052560E082E090E06D
:101860000E94E72460E083E090E00E94E724109269
:10187000BA0160E074E184E090E00E94052560E038
:1018800086E090E00E94E7246FEF87E090E00E94FE
:10189000E72440E050E0BA0188E090E00E94F9249B
:1018A00060E08DE090E00E94E72440E050E0BA0163
:1018B00088E190E00E94F92460E087E190E00E94D6
:1018C000E72440E050E0BA018CE190E00E94F92466
:1018D00070E060E080E290E00E94052540E050E08A
:1018E000BA0188E190E00E94F92480E00E94781318
:1018F0000E94A7130E941F0C08950E94270C0895B0
:10190000682F8EE090E00E94E72408950E94DC1C7E
:101910006093450270934602809347029093480279
:101920006093410270934202809343029093440279
:1019300008950E94DC1C60934502709346028093D8
:1019400047029093480260933D0270933E02809359
:101950003F02909340020895089508950E94AD0CAF
:10196000089508950E94B10C089581E59FE00E94BA
:10197000D61A0E94AC0C0E94AE0C089581E0089526
:101980000E94BE0C0895089508950E94C30C0E9401
:10199000C40C08950E946D0F0E943D0308950E949B
:1019A000C71C0E94B7130E9489160E942F100E9424
:1019B000CA0C0E94B20C0895AAE0B0E0E2EEFCE08E
:1019C0000C9480240E94451089E3A82E82E0B82E52
:1019D000750110E0F70101917F01812F0E94900FA6
:1019E0001F5F143009F440C00817A1F38091490229
:1019F00081FD0E94960F0E94C00CC82E10E0812F1E
:101A00000E94900F082FF50181915F01081731F1B5
:101A1000D02ED826F12CEE24E3948D2D8E21B1F01A
:101A2000CC20A1F0FE821F8391E0802F8E2109F44B
:101A300090E098870E94D01C8160782F9A878987D0
:101A40004E815F8168858A850E946903F394EE0C5C
:101A5000F4E0FF12E2CFF501319700831F5F1430ED
:101A600071F60E94860C20C00813C0CF0E94D01CC3
:101A70008C01809137029091380208171907A1F064
:101A80008FEF89838A831B820E94D01C8160782F0C
:101A90009D838C8349815A816B818D810E9469036A
:101AA00010933802009337020E94FA1681110E94A7
:101AB000990C0E9463120E9450032A96EAE00C944B
:101AC0009C24CF93DF930E946C0EEC01811520E5DE
:101AD0009207D0F5811530E4930708F086C0803E68
:101AE000910518F58D3C910508F07DC0883A910567
:101AF00070F4853A910508F06EC08130910501F1CE
:101B00000097F1F00497E0F4D0E0C0E019C0813C08
:101B10009105D0F7C85AD0E0CC0FDD1FC85BDE4F6F
:101B20000990D881C02DD4640BC08115904208F073
:101B3000A8C0C11581E0D80718F4C83ED10520F728
:101B4000CE01DF91CF910895803622E5920710F5FE
:101B5000803432E5930708F052C08032924508F095
:101B600047C0C11582E5D80708F47DC02C2F269503
:101B7000269540E2249F900111248C2F8370C1E0B0
:101B8000D0E002C0CC0FDD1F8A95E2F7C22BD32B29
:101B9000DD68D6CF803A22E5920760F4803832E5DE
:101BA000930708F441C0CF71D0E0DC2FCC27C46F7D
:101BB000D06AC6CF803C42E5940708F449C0C03ED5
:101BC00082E5D80708F0A0CFDC2FCC27CC27DF7127
:101BD000C06FD06AB5CFC55AD0E0C658DE4FC881B5
:101BE000D0E0D064ADCFD065ABCFDF70D06AA8CFE6
:101BF000CF71D0E0DC2FCC27C16FD06AA1CF282FC6
:101C000026952695277080E2289F900111248C2F1D
:101C10008370C1E0D0E002C0CC0FDD1F8A95E2F7EF
:101C2000C22BD32BDC688CCF282F269526952770C6
:101C300040E2249F900111248370C1E0D0E002C0F3
:101C4000CC0FDD1F8A95E2F7C22BD32BDA6878CF51
:101C50008F710E940E0FC82FD0E0DC2FCC27CC272D
:101C6000DF71D0626DCF8C2F8F710E940E0F35E027
:101C7000D695C7953A95E1F7CF709C2FEC01D069C6
:101C80005FCF8D2F8F710E940E0F90E0982F8827C5
:101C900088279F719C012C2BE901E3CF743038F425
:101CA000643050F4462F672F0E94121908957D3F2B
:101CB00031F441E0623040F090E080E008957C3FF4
:101CC000D9F76230C8F740E00E941E1908950E94BB
:101CD0004E0E0E94610D089582389105B9F1B0F45D
:101CE0008133910509F47DC048F48932910509F4E6
:101CF0006DC08A32910509F47BC008958533910542
:101D000009F45FC08933910509F10895833E910577
:101D1000D9F138F4803E910529F1823E910579F19F
:101D20000895863E9105D9F1873E910509F43EC09C
:101D3000843E910541F52091900221FF24C08091BD
:101D40008F0284FD19C087EE90E0089520918F02E4
:101D5000237009F05AC02091900223FF14C089E239
:101D600090E0089520918F0220FD38C030919002BC
:101D700030FF09C024FF43C090E080E00895209127
:101D80008F0222FDF7CF089520918F0222FD3AC0E5
:101D90003091900230FD39C024FFF5CFEDCF209176
:101DA0008F0223FFF0CF24FDE7CFCDCF20918F020C
:101DB00023FD2EC03091900231FFEECF84EE90E0F3
:101DC000089520918F0225FFDECFC9CF20918F0289
:101DD00025FD21C02091900223FFD5CF89E390E01B
:101DE000D2CF20918F0226FFCECF8AE290E00895D5
:101DF00020918F0226FFC7CF81E390E0089583EE04
:101E000090E0089582EE90E0089580EE90E00895CD
:101E100086EE90E0089585E390E0089590918F021A
:101E200092FF06C0282F28712830F9F4877F84603C
:101E300093FF06C0282F28712831F1F4877E846132
:101E40002091900220FF06C0382F38713830D9F425
:101E5000877F816021FF06C0282F28712831D1F4A7
:101E6000877E816194FD877E0895282F2471243018
:101E7000F9F68B7F8860DCCF282F2471243101F79D
:101E80008B7E8861DDCF382F3171313019F78E7F2D
:101E90008860E0CF282F2171213121F78E7E886163
:101EA000E1CF80E008950E94E30B08950E94451061
:101EB0008FE39CE90197F1F700C000000E944510F4
:101EC00080E00E94900F80FF04C00E94530F0E9488
:101ED0001B1D08950E94560F08950E94EA0B811160
:101EE00002C00E947D0C0E94F60B809349020E9462
:101EF000000C9093900280938F020E946A0F0E94C0
:101F0000FB0B0E94F3068091B9010E940B07089514
:101F100008950E94880F089508950E948C0F0895D7
:101F2000E82FF0E0EB56FD4F80810895089580EA98
:101F30008A95F1F7089500C008950E94970F0895BB
:101F4000F894E82FE295EF70F0E031A1282F2F7080
:101F500081E090E001C0880F2A95EAF7982F9095CC
:101F6000932391A392A1892B82A37894089583E966
:101F70000E94A00F82E90E94A00F81E90E94A00F99
:101F800080E90E94A00F86EC0E94A00F87E90E94C2
:101F9000A00F86E60E94A00F84E90E94A00F08957A
:101FA000B0E0A0E0E6EDFFE00C948224EC01D62E38
:101FB000062F10E0C8018F579E4F7C01FC018081E5
:101FC0008F3F09F445C0F894E82FE295EF70F0E0F8
:101FD00091A18F7021E030E001C0220F8A95EAF7CD
:101FE000892F822B81A382A12095282322A3789474
:101FF0000E949B0FEDE7F1E041E851E031E0C12C98
:1020000021912F3F51F1A22FA295AF70B0E0909691
:102010008C9190E02F7002C0959587952A95E2F7F4
:1020200080FD1BC0832FC82A330F4E175F0741F76F
:10203000F70180818F3F11F00E94A00F61E0C11075
:1020400001C060E08D2D0E949D0FC00FD11FC8827E
:10205000CDB7DEB7E8E00C949E2480E0E4CF0E9488
:10206000B70F84E0E5E9F2E0DF01982F1D929A9521
:10207000E9F7E1E9F2E0DF011D928A95E9F784E0F2
:102080000E9482100E94A2020895A4E0B0E0EBE456
:10209000F0E10C94872419821A821B821C8210E0C2
:1020A000612FCE0101960E94D00F1F5F1430C1F73F
:1020B00044E050E0BE016F5F7F4F81E992E00E94F3
:1020C000C32421E0009709F420E0892B61F0898185
:1020D0009A81AB81BC818093910290939202A093EC
:1020E0009302B093940244E065E972E081E992E0E2
:1020F0000E948310182F0E94A502812F2496E3E0EE
:102100000C94A3240895CF92DF92EF92FF920F9345
:102110001F93CF936C017B01042F222349F081E0B0
:1021200080934C020E94D01C90934B0280934A02F1
:10213000C0914C02C1110AC0C0E08C2FCF911F91F9
:102140000F91FF90EF90DF90CF90089580914A0219
:1021500090914B020E94E81C059770F310E0A801D3
:10216000B601C7010E94C324892B41F0A801B60122
:10217000C7010E94D02410924C02DFCFC0E0FBCFF9
:102180000E94B61E0E94CF0C0E94C31E08950E949A
:10219000C81E0E94DC0C0E94E21E08950E94691C69
:1021A0000E949C1E0E94B50C0E94C0100E94C71085
:1021B0000E94C50CFBCF8091530280FF0DC060913F
:1021C000070170E0660F771F6038710570F56115C3
:1021D000710569F1862F089581FF07C0609107019D
:1021E00084E0689FB0011124EFCF6091070182FD68
:1021F0000AC0809152028823A9F0209106016091C3
:102200000701821710F088E0ECCF869FC0011124EF
:1022100033E0880F991F3A95E1F7622F70E00E9432
:102220005724D2CF68E070E0D5CF8FE7089581E0E2
:1022300008958091530280FF0CC06091030170E00B
:1022400075956795759567956115710549F1862FA7
:10225000089581FF06C06091030170E07595679550
:10226000F3CF6091030182FD0BC09091510299233D
:10227000A1F06091020180910301961738F0682F58
:1022800070E06038710500F38FE70895899FC00101
:10229000112470E00E945724F4CF61E070E0D7CFA2
:1022A00081E008958D3C31F40E94DB10819580938C
:1022B000570208958E3C19F40E94DB10F8CF8F3C32
:1022C00031F40E94DB108195809356020895803D81
:1022D00019F40E94DB10F8CF893D29F40E941911EE
:1022E0008093580208958A3D21F40E941911819526
:1022F000F7CF8B3D31F40E941911819580935902DB
:1023000008958C3D19F40E941911F8CF9FE2980F9F
:10231000983070F4815D990B21E030E001C0220F0C
:102320008A95EAF780915502822B80935502089591
:102330008D3D31F480915302816080935302089562
:102340008E3D21F4809153028260F7CF8F3DB9F723
:10235000809153028460F1CF409156028D3C59F434
:102360008091570287FF0DC01092570241110BC098
:102370001092520208C08E3C81F4809157021816C8
:102380009CF3442381F08091580290915902892B4B
:1023900009F05AC01092510208958F3C49F447FF4A
:1023A000F0CF10925602809157028111ECCFE0CF0E
:1023B000803D19F41416ACF3E4CF90915802893D96
:1023C00029F41916F4F610925802DBCF8A3D19F45D
:1023D00097FFD7CFF8CF909159028B3D29F497FF03
:1023E000D0CF10925902CDCF8C3D19F41916CCF3F1
:1023F000C8CF9FE2980F983090F4815D990B21E04F
:1024000030E0B90102C0660F771F8A95E2F7CB0171
:10241000809590915502892380935502B2CF8D3DCE
:1024200031F4809153028E7F80935302AACF8E3D68
:1024300021F4809153028D7FF7CF8F3D09F0A1CF1A
:10244000809153028B7FF0CF08950E94D01C9C0195
:102450009091560280915702982B21F030935002B0
:1024600020934F029091580280915902982B21F0AD
:1024700030934E0220934D0284E592E00E94071BA8
:10248000089586E0E4E5F2E0DF011D928A95E9F720
:102490001092520210925102109253020895FC01C0
:1024A000828181110EC0838181110BC084818111D1
:1024B00008C091E08581811101C090E0892F817071
:1024C000089581E0FCCFA6E0B0E0E9E6F2E10C94EB
:1024D000872486E0E4E5F2E0DE01119601900D929A
:1024E0008A95E1F710925602109257021092580204
:1024F000109259028B819C81892B89F080914F0227
:10250000909150020E94E81CAC01909152029923D4
:10251000C9F1809108018417150608F440C08D8127
:102520009E81892B91F080914D0290914E020E94E4
:10253000E81CAC0190915102992309F471C080917B
:1025400004018417150608F479C0BE016F5F7F4F40
:1025500084E592E00E94211C811105C084E592E08F
:102560000E944F1281110E94251286E0FE013196D1
:10257000A4E5B2E001900D928A95E1F72696E3E09A
:102580000C94A324209109018AE0289F9001112432
:102590002417350720F69F5F9093520202C09F3F99
:1025A000D1F71B81112359F00E94DB109FEF111608
:1025B0000CF491E0899F802D1124809356021C8198
:1025C000112359F00E94DB109FEF11160CF491E0DB
:1025D000899F802D11248093570230915602332316
:1025E00009F49DCF20915702222309F498CF45EB9F
:1025F0003403C0011124992359F09093560245EBFE
:10260000240390011124332339F03093570287CFEC
:1026100081E080935602F3CF81E0809357027FCF11
:10262000209105018AE0289F900111242417350785
:1026300008F08BCF9F5F9093510202C09F3FD1F76C
:102640001D81112359F00E9419119FEF11160CF4EE
:1026500091E0899F802D1124809358021E811123BF
:1026600059F00E9419119FEF11160CF491E0899F07
:10267000802D11248093590230915802332309F49C
:1026800064CF20915902222309F45FCF45EB340334
:10269000C0011124992359F09093580245EB24036B
:1026A00090011124332339F0309359024ECF81E049
:1026B00080935802F3CF81E08093590246CF82E2A3
:1026C00090E00E94D924833289F483E290E00E9452
:1026D000D924863059F484E290E00E94D92491E014
:1026E000833109F090E0892F8170089580E0FCCF5C
:1026F000CF93C82F6FEF811163E282E290E00E94D6
:10270000E7246FEFC11166E083E290E00E94E724C6
:102710006FEFC11163E184E290E00E94E724CF9162
:102720000895089585E290E00E94D924682F70E012
:1027300090E080E008950895CF93C62F0E949B13E8
:102740006C2F85E290E00E94E724CF91089580E00D
:102750000E94781360E070E0CB010E949C130E94FD
:1027600070180E94771981E00E94781308950E94E2
:1027700091130E9492130E949B130E945F13811178
:1027800002C00E94A71308950895CF93FB01C28150
:10279000CC2309F19C01225037472031310520F527
:1027A00082500E948719C0E08C2FCF91089581E05C
:1027B0000E94200743E062E081E00E949802F3CF8C
:1027C00081E00E942C0743E062E081E00E949802D1
:1027D000EBCF82E0F6CF8115F7E79F0789F38130D1
:1027E0009747B9F3C1E0E0CF8115E7E79E07F9F21B
:1027F00081309747C9F682E0DBCF2FEFFC012083C1
:1028000008950E94FD13089580E00895EF92FF92CD
:102810000F931F93CF93DF93EC01062F0E940414B4
:10282000811110C0E881E150E531B8F4F0E0E75DD6
:10283000FA4D0C946B2419828BE08A83602FCE01B1
:102840000E94901DCDB7DEB7E6E00C94A0248981EC
:102850008230C1F028F4813061F08FEF8883EECFB1
:10286000833099F08430C9F71A821B821C821D8242
:10287000E5CF0E94DC1C0E9471246A837B838C83D9
:102880009D83DCCF0E949213F6CF7E0182E0E80E9A
:10289000F11C10E0812F0E94900FF70181937F01BE
:1028A0001F5F1430B9F7CACF8981823031F085308B
:1028B000A1F68A810E94C413C1CF6A817B818C8179
:1028C0009D810E9471240E949C13B8CF4B816A8124
:1028D00089810E94C8179827892798279D838C8310
:1028E000ADCF2C813D813227232732274B816A814E
:1028F00089810E94EA17A2CF0E9470189FCF602F93
:10290000CE010E9401149ACF0E942819898396CF84
:102910000E942A199827892798279A8389838ECF1E
:102920006B8170E089819A81AE014C5F5F4F98277F
:10293000892798270E942D1981CF6B8170E08981AA
:102940009A81AE014C5F5F4F9827892798270E9494
:10295000521974CF0E94771971CF0E94B517D6CF44
:102960006B8170E089819A81AE014C5F5F4F98273F
:10297000892798270E94CC1861CF6B8170E08981EC
:102980009A81AE014C5F5F4F9827892798270E9454
:10299000EF1854CF41E08B81811101C040E06A8182
:1029A00089810E94061897CF2C813D8132272327E9
:1029B000322741E08B81811101C040E06A81898129
:1029C0000E943F183BCFCF93DF93EC01FB01828144
:1029D000882309F4D2C09E0130572332310508F014
:1029E000B2C00E94000C9093900280938F02FE016F
:1029F000E150F047E232F10520F4E25CFA4D0C942C
:102A00006B2480918F02816080938F0293C08091AC
:102A100090028860809390028DC080918F028260C6
:102A2000F3CF80918F028460EFCF80918F02886016
:102A3000EBCF809190028160EDCF80919002826017
:102A4000E9CF80918F028061DFCF80918F02806219
:102A5000DBCF80918F028064D7CF0E94A206809145
:102A60008F028068D1CF80918F028C60CDCF809112
:102A700090028360CFCF80918F028E7FC5CF8091EF
:102A80009002877FC7CF80918F028D7FBDCF8091CD
:102A90008F028B7FB9CF80918F02877FB5CF8091D6
:102AA00090028E7FB7CF809190028D7FB3CF8091BF
:102AB0008F028F7EA9CF80918F028F7DA5CF8091CD
:102AC0008F028F7BA1CF0E94A20680918F028F7709
:102AD0009BCF80918F02837F97CF809190028C7FD4
:102AE00099CF80918F0282FB992790F921E092275C
:102AF00090FB82F990FB83F987CF80919002982F09
:102B0000909591708E7F892B90FB81F983CF909166
:102B10008F02892F8F7B96FF806476CF0E94A2065A
:102B200090918F02892F97FB87F980586DCF81E0B4
:102B30000E94800C80918F02909190020E94050C5F
:102B40000E94A20680E0DF91CF91089580E0F0CF4F
:102B500090918F02892F8F7E94FF806155CF909145
:102B60008F02892F8E7F90FF81604ECF90919002CF
:102B7000892F877F93FF88604DCF81E0E4CFB0E05D
:102B8000A0E0E5ECF5E10C948324E82FF0E0E45BB1
:102B9000FE4FD490282F26952695269530E0F901F2
:102BA000E451FE4F0491877010E0082E02C0159585
:102BB00007950A94E2F701701127F901E452FE4FDC
:102BC000E490F12C082E02C0F594E7940A94E2F701
:102BD00091E0E922FF24F901E453FE4FC491D0E0D3
:102BE00002C0D595C7958A95E2F7C170DD2701151A
:102BF000110519F081EE0E94AE03E114F10419F001
:102C000086EE0E94AE038D2D0E944604E114F1046D
:102C100019F086EE0E94FB030115110519F081EEF3
:102C20000E94FB03CD2B19F08CE20E944604CDB725
:102C3000DEB7E7E00C949F24EF92FF920F931F936F
:102C4000CF93DF93EC01162F0AE08881882309F4E3
:102C500054C0813009F04EC08981813099F47E01E1
:102C600022E0E20EF11C8A810E944604E7012196CF
:102C7000812F815050F3EFE9FFE03197F1F700C069
:102C80000000F7CF823041F47E0182E0E80EF11CB3
:102C90008A810E94AE03EACF833041F47E01E2E0F4
:102CA000EE0EF11C8A810E94FB03E0CF843011F00C
:102CB0002196DDCF2A81229690E080E0AE014F5F21
:102CC0005F4F2053330B2A30310548F0019778F2DB
:102CD000EFE9FFE03197F1F700C00000F7CF089F60
:102CE000B001099F700D1124C901860F971F29811A
:102CF000EA01E4CF0E94BF15BACFCDB7DEB7E6E058
:102D00000C94A0248FE891E00197F1F700C0000037
:102D10000895FF920F931F93CF93DF9382E08093E8
:102D20005C0207E911E0C5E9D1E0AE01D80121E07C
:102D300030E08D91E82FE295EF70F0E0F1A08F7018
:102D4000B90101C0660F8A95EAF7962F90959F21E9
:102D500091A382A1862B82A3FA018191AF01E82F72
:102D6000E295EF70F0E0F1A08F70B90101C0660F3D
:102D70008A95EAF7962F90959F2191A382A1862BA1
:102D800082A3F1E0A939BF07A1F60E9482166091E3
:102D90005C024FE552E0FA018E2F841B861728F063
:102DA000CDB7DEB7E5E00C94A124D8012D918D01BB
:102DB000A22FA295AF70B0E090968C9190E02F700A
:102DC00002C0959587952A95E2F781709991A92F70
:102DD000A295AF70B0E090962C9130E09F7002C049
:102DE000359527959A95E2F790E020FD92E0892BA2
:102DF0008193D2CFA4E1B0E0E0E0F7E10C947D2430
:102E000010E000E084E0C82ED12C9DEF992E88249C
:102E100083942CEF722E80915C02181728F0802F7B
:102E20006496EDE00C949924E12EF12CF701E9561B
:102E3000FE4F8081E82FE295EF70F0E0E0A1F0E036
:102E40008F7002C0F595E7958A95E2F7E170D7019A
:102E5000AB56BE4F2C91A22FA295AF70B0E09096CA
:102E60008C9190E02F7002C0959587952A95E2F796
:102E700080FD79C080E08E2BD701A15ABD4FEC9127
:102E80009E2F9370981709F46CC0EE0FEE0FE82B8D
:102E9000EC93EF70F0E0EB57FE4FC701835A9D4F64
:102EA0005C018081F5019081890F808320E084306E
:102EB0002CF1F701E65AFD4F80818F5F80830E94DD
:102EC000D01C1B877C868D868160782F9F878E879C
:102ED000412F5CEF61E08F850E9469030E94D01C46
:102EE000188B798A1A8A8160782F9C8B8B8B412F63
:102EF0005CEF60E08C890E94690321E0F50180812C
:102F00008D3F2CF5F701E65AFD4F8081815080837B
:102F10000E94D01C19839A828B828160782F9D83B6
:102F20008C83412F5DEF61E08D810E9469030E94D7
:102F3000D01C1E839F8218868160782F9A8789878C
:102F4000412F5DEF60E08A850E94690321E0F50171
:102F50008081082E000C990BB6010E9457248083B3
:102F6000022B1F5F58CF82E086CF84E0089528E0CF
:102F7000629FB001112450E0440F551F640F751F6C
:102F800020E2829FC0011124860F971F8696089524
:102F90000F931F93CF93DF938430C8F46430B8F459
:102FA0004430A8F40E94B7178C010E94D924C82F7E
:102FB000D0E0DC2FCC27C80101960E94D9249E01C5
:102FC000282BC901DF91CF911F910F91089590E0B7
:102FD00080E0F8CF0F931F93CF93DF93122F032F2F
:102FE000843078F4643068F4443058F40E94B717A1
:102FF000EC01602F0E94E724612FCE0101960E9410
:10300000E724DF91CF911F910F910895FF920F93C5
:103010001F93CF93DF93F42E843070F5623060F508
:1030200028E0829F8001112434E0639FB0011124C5
:10303000060F171F0A551F4F82E090E0442311F03E
:1030400090E080E0800F911F0E94D924C82FD0E02B
:10305000DC2FCC2783E090E0FF2011F081E090E0AE
:10306000800F911F0E94D9249E01282BC901CDB742
:10307000DEB7E5E00C94A12490E080E0F8CF0F9358
:103080001F93CF93DF93142F022F843020F56230EB
:1030900010F598E0899FE001112484E0689FB00159
:1030A0001124C60FD71FCA55DF4F82E090E044239A
:1030B00011F090E080E0632F8C0F9D1F0E94E724A9
:1030C00083E090E0112311F081E090E0602F8C0FFD
:1030D0009D1F0E94E724DF91CF911F910F910895CA
:1030E000FF920F931F93CF93DF9310E000E0D0E0A7
:1030F000C02F1AC00E94F00121E030E080171106B5
:1031000039F034F04F2D6D2F8C2F0E94F2019C016D
:103110004F2D6D2F8C2F0E94EA17F39484E0F81244
:10312000E9CFDF5FD43011F0F12CE4CFD0E00E9482
:103130000E028017110631F12CF141E06D2F8C2F1A
:103140000E9410029C0141E06D2F8C2F0E943F18BD
:1031500040E06D2F8C2F0E9410029C0140E06D2FEB
:103160008C2F0E943F18D13059F40F5F1F4F04304D
:10317000110509F0BCCFCDB7DEB7E5E00C94A12472
:10318000D1E0D5CF21E030E041E06D2F8C2F0E94BF
:103190003F1821E030E0E2CFEF92FF920F931F93B0
:1031A000CF93DF93EC018A017C01E60EF71ECE017E
:1031B0008696CE15DF0529F4CDB7DEB7E6E00C9490
:1031C000A024C038D10540F40E94D924F80180839E
:1031D0000F5F1F4F2196EBCFF8011082F9CFB0E0BF
:1031E000A0E0E5EFF8E10C9482247C016A018C01F7
:1031F000060F171FEC01CE018696C017D10729F4E0
:10320000CDB7DEB7E8E00C949E24C038D10540F479
:10321000FE01EE19FF09EC0DFD1D60810E94E724FF
:103220002196E9CF843038F4643028F4443018F41F
:103230000E94C817089590E080E00895843028F433
:10324000623018F40E940618089590E080E0089516
:1032500080E108958AE393E00895EF92FF920F933F
:103260001F93CF93DF93EC018A017C01E60EF71EDA
:10327000CE018A539F4FCE15DF0529F4CDB7DEB7B7
:10328000E6E00C94A024CA3323E0D20740F40E9465
:10329000D924F80180830F5F1F4F2196E9CFF801F1
:1032A0001082F9CFB0E0A0E0E8E5F9E10C948224C7
:1032B0007C016A018C01060F171FEC01CE018A53B5
:1032C0009F4FC017D10729F4CDB7DEB7E8E00C94C3
:1032D0009E24CA3323E0D20740F4FE01EE19FF0911
:1032E000EC0DFD1D60810E94E7242196E7CFCF936E
:1032F000DF93C6ECD0E060E0CE010E94E724219687
:10330000C11584E0D807B9F7DF91CF910895A8E0FF
:10331000B0E0EDE8F9E10C948024F82E8FE08F15F1
:1033200008F46EC08FEF93E00E94D924811168C029
:1033300006EC10E0F11035C0FE0131966F0188E017
:1033400011928A95E9F77801FFEFEF1AFF0AC80199
:103350000E94D92489831A82882309F451C08130BC
:10336000D1F4580182E0A80EB11CC7010E94D924F3
:103370008A83882309F444C09FEF980F9330F0F4B8
:10338000780193E0E90EF11CC5010E94D9248B83DA
:103390008823B1F11C8260E0C6010E941C168701DF
:1033A000D2CF011594E0190759F1C8010E94D92420
:1033B000811101C0FA940F5F1F4FBCCF750184309B
:1033C00051F702E010E07501EFEFEE1AFE0AC501B9
:1033D0000E94D924F601E00FF11F8083882381F039
:1033E0008C3741F4E2E0F0E0EC0FFD1FE00FF11F3D
:1033F0001082D1CF0F5F1F4F57010730110519F70A
:103400002896EAE00C949C24CF93DF93EB0186315D
:103410009C4711F50E94FC0A9A81992399F08A7AB7
:1034200091E009F490E090936102811109C089E272
:103430000E94D40A0E943D0B80E0DF91CF91089555
:1034400085E3F6CF80916102811104C089E20E9478
:10345000DC0AF0CF85E3FBCF81E0EFCF0F931F9322
:10346000CF93DF93C42FD22FFC0182818823C9F030
:10347000409364020E94D01C909363028093620286
:1034800080E28C0F883040F4C77081E001C0880F63
:10349000CA95EAF70E944F04DF91CF911F910F91D7
:1034A000089510916402141332C0809162029091C9
:1034B00063020E94E81C883C910548F5C0E2CD0FEC
:1034C0001D17B9F080E2810F883040F4177081E059
:1034D00001C0880F1A95EAF70E945604C83048F4D4
:1034E00081E09D2F977001C0880F9A95EAF70E949E
:1034F0004F04802F0E944604C83070F6D77081E0D8
:1035000001C0880FDA95EAF70E945604C5CF80E221
:103510008C0F883008F6C77081E001C0880FCA950B
:10352000EAF7F2CF0F93DB0188519C478730910572
:10353000A0F5FC01E05AFA4D0C946B2406E221EE52
:1035400041EE6AE17CE7CD010E942E1A80E00F91E6
:10355000089507E225EE45EE6BE17CE7F4CF06E245
:1035600021EE40EE68E17CE7EECF07E225EE44EE87
:1035700069E17CE7E8CF06E221EE42EE6CE17CE710
:10358000E2CF07E225EE46EE6DE17CE7DCCF08E214
:1035900021E045EE6EE17CE7D6CF12968C91882330
:1035A00019F010926402D3CF81E0D1CF9093A9019A
:1035B0008093A801089590936A0280936902089508
:1035C000E0916902F0916A02309729F00190F08150
:1035D000E02D0995089580E00895E0916902F09149
:1035E0006A02309799F020911201222359F020911C
:1035F0008F0227FF07C0DC012C9111962C931197A5
:1036000026E02C930280F381E02D09950895E09146
:103610006902F0916A02309739F022E0DC012C93C4
:103620000480F581E02D09950895A3E0B0E0EBE179
:10363000FBE10C94882420916702309168022817DE
:103640003907A1F09093680280936702E0916902C4
:10365000F0916A02309751F023E029839B838A839B
:103660000680F781E02DCE01019609952396E2E0D0
:103670000C94A424A3E0B0E0E0E4FBE10C948824E3
:10368000209165023091660228173907A1F09093C6
:10369000660280936502E0916902F0916A023097B8
:1036A00051F024E029839B838A830680F781E02DF3
:1036B000CE01019609952396E2E00C94A424FC0126
:1036C000329680911201882321F080918F029EE131
:1036D00087FF96E080E0915008F40895219122231D
:1036E000D1F38F5FF8CF662301F1209112012223DD
:1036F000F1F020918F0227FF1AC0462F469546957C
:1037000046954E3190F4677021E030E002C0220F00
:10371000331F6A95E2F7840F911DFC01828190E0CE
:103720002823392381E0232B69F480E00895FC01EC
:10373000329608962191261721F0E817F907D1F75C
:10374000F4CF81E008959C01FC0132969FEF80E068
:103750004191461751F09F3F19F4411101C0982F34
:103760008F5F8630A9F79F3F09F40895290F311D17
:1037700097FD3A95F90162830895FC013296089607
:103780002191261303C0DF0111971C92E817F90756
:10379000B9F70895E62FE695E695E695EE3168F4DB
:1037A000E80FF92FF11D677021E030E001C0220F12
:1037B0006A95EAF78281822B82830895E62FE69547
:1037C000E695E695EE3170F4E80FF92FF11D67707C
:1037D00021E030E001C0220F6A95EAF7209582814E
:1037E00028232283089520911201222339F0209169
:1037F0008F0227FF03C00E94CA1B08950E94A31BCB
:10380000089520911201222339F020918F0227FF81
:1038100003C00E94DE1B08950E94BD1B0895FC0199
:10382000329680911201882351F080918F0287FF98
:1038300006C08EE1DF011D928A95E9F7089586E0C2
:10384000F9CF46E050E00E94C32421E0892B09F41F
:1038500020E0822F089508950E942B1C0895811165
:1038600006C081E080936B020E942C1C089582E0C8
:10387000F9CF83E080936B020E942C1C08950E9474
:103880002F1C089581E080936B020E942C1C0895E8
:103890000E94421C0895089508950E944C1C0895AA
:1038A000089508950E944B1C0895CF930E94501CC8
:1038B0000E9445100E94511CC0E08C2F0E94900F66
:1038C000811105C0CF5FC430C1F7CF91089581E069
:1038D000FCCF85B7806885BF85B7806885BF0895B0
:1038E0001F921FB61F9211248F939F93AF93BF9384
:1038F00080916C02811113C08091990290919A027B
:10390000A0919B02B0919C024196A11DB11D809394
:10391000990290939A02A0939B02B0939C02BF914C
:10392000AF919F918F911F901FBE1F90189580910E
:10393000A102843031F10E941D0310926C0288E1D3
:1039400090E020E40FB6F894A895809360000FBE35
:103950002093600083B7817F846083BF83B78160D9
:1039600083BF7894889583B78E7F83BF0FB6F89412
:10397000A89580916000886180936000109260003B
:103980000FBE08950E94A2060E942203089582E0BD
:1039900084BD93E095BD9AEF97BD80936E00089526
:1039A0002FB7F8948091990290919A02A0919B026E
:1039B000B0919C022FBF08952FB7F894609199029F
:1039C00070919A0280919B0290919C022FBF089562
:1039D0009C014FB7F8948091990290919A02A0911E
:1039E0009B02B0919C024FBF821B930B0895789469
:1039F0001F921FB61F9211248F939F93AF93BF9373
:103A00008091990290919A02A0919B02B0919C02A0
:103A10000196A11DB11D8093990290939A02A093E3
:103A20009B02B0939C02BF91AF919F918F911F9089
:103A30001FBE1F90189587E797E790930108809322
:103A4000000888E19AE00FB6F894A895809360008A
:103A50000FBE90936000FFCF88E19AE00FB6F89414
:103A6000A895809360000FBE90936000FFCF809177
:103A70008D0208959B01BA019091A1029430E9F45E
:103A80008F708093E9009FEF8091E800915085FD51
:103A900006C085ED8A95F1F700009111F5CF809170
:103AA000E80085FF0AC050E040E0C9010E94811F84
:103AB0008091E8008E778093E800089543E050E01D
:103AC000BC0184E00E943A1D089546E050E0BC012C
:103AD00084E00E943A1D0895CF93DF93EC0180911A
:103AE0001201811111C048E050E0BE0181E00E9446
:103AF0003A1D80E2FE01ADE6B2E001900D928A959A
:103B0000E1F7DF91CF91089580918F0287FF05C083
:103B100040E284E050E0BE01EACF48E081E0FACF25
:103B2000603231F440E250E0BC0182E00E943A1D74
:103B300008958091A002811109C00E9460210E9415
:103B4000BD218091E20084608093E200089510928C
:103B5000A00208950E94421C089560919D0281E098
:103B6000611101C080E00E94391C08959091A1026A
:103B700081E0943009F080E060919D020E943F1C3A
:103B8000089542E061EC81E00E94DC2042E261ECB9
:103B900084E00E94DC2042E261EC82E00E94DC20B2
:103BA00042E260EC83E00E94DC209091A10281E07F
:103BB000943009F080E060919D020E942F1C0895CE
:103BC0008091A302833009F463C030F48130E1F1C5
:103BD000823009F4A0C008958A3009F48CC08B307B
:103BE00009F471C0893009F052C08091A20281327B
:103BF00009F04DC08091A6029091A702009719F09C
:103C0000029709F044C08091E800877F8093E80024
:103C10008091E80082FF37C09091F3008091F2001C
:103C2000029731F48091F100813011F0863021F457
:103C30008091F10080938D028091E8008B778093D2
:103C4000E8000E94102123C08091A202813AF9F479
:103C50008091E800877F8093E8008091A602909190
:103C6000A702892B61F460E28DE692E070E00E9489
:103C70001F208091E8008B778093E800089560E032
:103C800090E080E0F3CF8091A1028111C1CF08952F
:103C90008091A202813AD9F78091A6029091A70261
:103CA000892BA9F78091E800877F8093E8008091B5
:103CB000E80080FFFCCF809112018093F100809199
:103CC000E8008E77BCCF8091A202813201F780910B
:103CD000A6029091A702892BD1F68091E800877FF8
:103CE0008093E8000E9410218091A4028093120129
:103CF0000E94A20608958091A202813241F680912D
:103D0000E800877F8093E8000E9410218091A5023F
:103D100080938E0208958091A202813A09F0B7CF74
:103D20008091E800877F8093E8008091E80080FF21
:103D3000FCCF80918E02C1CF84B7877F84BF0FB63E
:103D4000F894A8958091600088618093600010923B
:103D500060000FBE80E890E00FB6F8948093610099
:103D6000909361000FBE0E94481C08950E9460213C
:103D70000E94BD21E2EEF0E080818460808378942F
:103D80000E943C2408958AE091E00E94DB1A089585
:103D90008091A102853031F48091A102853019F023
:103DA0000E94C21C08950E94971C80919F02882344
:103DB00099F30E94551C882379F30E946B1F0E947F
:103DC000A206EACFA0E2B0E0E8EEFEE10C9488247F
:103DD0008091A102843009F583E08093E90080910D
:103DE000E80082FF1AC08091E80090E085FF09C0DA
:103DF00050E040E060E270E0CE0101960E94D01FEA
:103E000091E08091E8008B778093E800992329F076
:103E100060E2CE0101960E940614A096E2E00C94A6
:103E2000A4240E94141F0895292F3327233031051D
:103E300021F168F42130310509F443C02230310505
:103E400009F444C090E080E030E020E026C0213258
:103E5000310551F122323105A9F76330710590F730
:103E6000FB01EE0FFF1FE456FE4F208131816756A4
:103E70007E4FFB01808190E010C099278130910531
:103E800081F0009729F00297E9F6ECEFF1E002C02B
:103E9000E8E1F2E0849190E09F01FA013183208310
:103EA0000895ECE0F2E0F6CF6330710558F6660F46
:103EB000771FFB01EE55FE4F2081318189E090E0B4
:103EC000ECCF82E190E027E732E0E7CF8BE590E0AE
:103ED0002CE132E0E2CF80E189BD82E189BD09B405
:103EE00000FEFDCF8091D8008F7D8093D800809117
:103EF000E00082608093E0008091E00081FDFCCFD3
:103F00000895AF92BF92CF92DF92FF920F931F93CB
:103F1000CF93DF936C01EB018A010E942F21F82ED1
:103F2000811123C00115110539F0F80180819181BB
:103F3000C81BD90BC80ED91EB12CA12C2097A9F0F3
:103F40008091E80085FD22C08091E8008E77809303
:103F5000E80001151105A1F0F80180819181A80EFA
:103F6000B91EB182A08285E0F82E8F2DDF91CF910E
:103F70001F910F91FF90DF90CF90BF90AF90089569
:103F80000E942F218823D1F2F82EEFCFF6018191E4
:103F90006F018093F1002197FFEFAF1ABF0ACECFD8
:103FA000AF92BF92CF92DF92FF920F931F93CF9366
:103FB000DF936C01EB018A010E942F21F82E811101
:103FC00023C00115110539F0F80180819181C81BCA
:103FD000D90BC80ED91EB12CA12C2097A9F0809125
:103FE000E80085FD22C08091E8008B778093E8008F
:103FF00001151105A1F0F80180819181A80EB91E6B
:10400000B182A08285E0F82E8F2DDF91CF911F9194
:104010000F91FF90DF90CF90BF90AF9008950E94D6
:104020002F218823D1F2F82EEFCF8091F100F601F5
:1040300081936F012197FFEFAF1ABF0ACECFFC012A
:104040008091A8029091A90286179707A0F06115A8
:10405000710529F49091E8009E779093E80090E034
:104060006115710551F4911108C08091E80082FF3B
:1040700034C080E00895BC01F2CF8091A102882372
:10408000C1F18530C1F18091E80083FD30C080919D
:10409000E80082FDEACF8091E80080FFE1CF8091C7
:1040A000F3002091F200382F6115710519F02830C6
:1040B000310558F091E02830310509F090E0209169
:1040C000E8002E772093E800CBCF81918093F10018
:1040D000615071092F5F3F4FE7CF8091A102882384
:1040E00041F0853041F08091E80083FFBECF81E050
:1040F000089582E0089583E00895FC018091A8026C
:104100009091A90286179707A0F06115710529F40F
:104110008091E8008E778093E80090E0611571054A
:1041200051F4911108C08091E80082FF35C080E011
:104130000895BC01F2CF8091A1028823C9F1853096
:10414000C9F18091E80083FD31C08091E80082FDD3
:10415000EACF8091E80080FFE1CF8091F3002091C9
:10416000F200382F6115710519F02830310558F02B
:1041700091E02830310509F090E08091E8008E77D9
:104180008093E800CBCF84918093F1003196615009
:1041900071092F5F3F4FE6CF8091A102882341F044
:1041A000853041F08091E80083FFBDCF81E0089524
:1041B00082E0089583E00895982F973028F08F705B
:1041C0008093E90081E008959093E900242F762FF1
:1041D00050E0981731F07091EC002091ED00509173
:1041E000F00021FD02C09F5FE8CF3091EB003E7FE1
:1041F0003093EB003091ED003D7F3093ED00309136
:10420000EB0031603093EB007093EC002093ED00F5
:104210005093F0002091EE0027FDE5CF80E0089557
:104220008091A20287FF13C08091E80082FF06C040
:104230008091E8008B778093E80004C08091A10210
:104240008111F2CF08958091A1028823D9F3809142
:10425000E80080FFF8CF8091E8008E77ECCF2091C6
:10426000E4003091E50095E6A9012091EC00822F51
:10427000817020FF06C08091E80080FF06C080E0CA
:1042800008952091E80022FD1AC08091A1028823A0
:1042900089F0853089F08091EB0085FD0FC0209179
:1042A000E4003091E50042175307F9F29150E1F62E
:1042B00084E0089582E0089583E0089581E0089500
:1042C0000E94CF210E94D721E0EEF0E08081816042
:1042D0008083E8EDF0E080818F77808319BCA7EDC3
:1042E000B0E08C918E7F8C9380818F7E8083109242
:1042F000A00208950F931F93CF93DF930E94CF21C5
:104300000E94D721C8EDD0E088818F77888388818B
:104310008068888388818F7D888319BC1092A10270
:1043200010929D0210929F0210929E0200EE10E0E9
:10433000F80180818B7F808388818160888342E05F
:1043400060E080E00E94DC20E1EEF0E080818E7F82
:104350008083E2EEF0E080818160808380818860EC
:104360008083F80180818E7F80838881806188834B
:10437000DF91CF911F910F910895E8EDF0E08081DA
:104380008F7E8083E7EDF0E080818160808384E030
:1043900082BF81E08093A0020E947A210895E8ED17
:1043A000F0E080818E7F80831092E2000895109269
:1043B000DA001092E10008951F920F920FB60F924B
:1043C00011242F933F934F935F936F937F938F931A
:1043D0009F93AF93BF93EF93FF938091E10082FF90
:1043E0000BC08091E20082FF07C08091E1008B7FCB
:1043F0008093E1000E943B248091DA0080FF19C085
:104400008091D80080FF15C08091DA008E7F809364
:10441000DA008091D90080FF96C080E189BD82E1F9
:1044200089BD09B400FEFDCF81E08093A1020E9406
:10443000991D8091E10080FF19C08091E20080FF0A
:1044400015C08091E2008E7F8093E2008091E200AF
:1044500080618093E2008091D80080628093D800D0
:1044600019BC85E08093A1020E94AD1D8091E100FE
:1044700084FF2BC08091E20084FF27C080E189BDCA
:1044800082E189BD89B5982F917080FFFBCF809123
:10449000D8008F7D8093D8008091E1008F7E80933B
:1044A000E1008091E2008F7E8093E2008091E20043
:1044B00081608093E20080919D02882309F449C0C5
:1044C00084E08093A1020E94B61D8091E10083FFE9
:1044D00029C08091E20083FF25C08091E100877FA1
:1044E0008093E10082E08093A10210929D0280916E
:1044F000E1008E7F8093E1008091E2008E7F8093C7
:10450000E2008091E20080618093E20042E060E09E
:1045100080E00E94DC208091F00088608093F000B1
:104520000E94AA1DFF91EF91BF91AF919F918F9132
:104530007F916F915F914F913F912F910F900FBE9F
:104540000F901F90189519BC1092A1020E94A71DF0
:1045500070CF8091E30087FD93E09093A102B3CFE9
:104560001F920F920FB60F9211242F933F934F93E8
:104570005F936F937F938F939F93AF93BF93CF93EB
:10458000DF93EF93FF93D091E900DF708091EC000F
:10459000C82FC17080FDC0E81092E9008091F00042
:1045A000877F8093F00078940E94F4221092E900B3
:1045B0008091F00088608093F000CD2BCF70C09385
:1045C000E900FF91EF91DF91CF91BF91AF919F9162
:1045D0008F917F916F915F914F913F912F910F90AC
:1045E0000FBE0F901F901895AAE2B0E0EAEFF2E23A
:1045F0000C94872482EA92E02091F100FC0121933F
:10460000CF01F2E08A3A9F07B9F70E94E01D80913E
:10461000E80083FF1EC18091A2029091A3029A300C
:1046200008F017C1E92FF0E0E959FA4D0C946B241A
:10463000803899F0823809F00CC18091A6028F7001
:10464000873008F006C18093E9008091EB0085FB7C
:10465000882780F91092E90006C080919E0290910F
:104660009F02911182609091E800977F9093E800FB
:104670008093F1001092F1008091E8008E77E5C000
:10468000882309F4D3C0823009F0E3C08091A402EA
:104690008111D6C08091A6028F702FEF280F26308F
:1046A00008F0D7C08093E9002091EB0020FFC8C03C
:1046B000933031F48091EB0080628093EB00C0C0B6
:1046C0009091EB0090619093EB0021E030E001C00D
:1046D000220F8A95EAF72093EA001092EA0080916F
:1046E000EB008860EACF8111B4C01091A4021F775B
:1046F0008091E3008078812B8093E3008091E80033
:10470000877F8093E8000E9410218091E80080FF5D
:10471000FCCF8091E30080688093E30082E0111178
:1047200083E08093A10295C08058823008F091C048
:104730008091A4029091A5028C3D23E09207A1F5FF
:1047400083E08A838AE289834FB7F894DE01139667
:1047500020E03EE051E2E32FF0E050935700E49177
:1047600020FF03C0E295EF703F5FEF708E2F90E067
:10477000EA30C0F0C7968D939D932F5F243159F78F
:104780004FBF8091E800877F8093E8006AE270E085
:10479000CE0101960E941F208091E8008B778093C4
:1047A000E80057C0C096E7CF6091A6027091A702BB
:1047B000AE014F5F5F4F0E94111FBC01892B09F4AE
:1047C00048C09091E800977F9093E80089819A8192
:1047D0000E947D20E1CF8038E1F58091E800877F5D
:1047E0008093E80080919D028093F10045CF811174
:1047F00030C09091A402923060F58091E800877FEC
:104800008093E80090939D020E94102180919D0268
:10481000882311F084E005C08091E30087FDFACF82
:1048200081E08093A1020E94C11D13C08091A40267
:10483000813079F481E0933009F080E080939F0229
:104840001092E9008091E800877F8093E8000E9441
:1048500010218091E80083FF0AC08091E800877FE3
:104860008093E8008091EB0080628093EB00AA9631
:10487000E3E00C94A3240895CF938091A1028823B0
:10488000A1F0C091E900CF709091EC00892F817068
:1048900090FD80E8C82B1092E9008091E80083FD2C
:1048A0000E94F422CF70C093E900CF91089597FB46
:1048B000072E16F4009407D077FD09D00E94AF248C
:1048C00007FC05D03EF4909581959F4F0895709513
:1048D00061957F4F0895EE0FFF1F0590F491E02D35
:1048E00009946927962769277827872778270895C5
:1048F0002F923F924F925F926F927F928F929F92F0
:10490000AF92BF92CF92DF92EF92FF920F931F93DD
:10491000CF93DF93CDB7DEB7CA1BDB0B0FB6F8948E
:10492000DEBF0FBECDBF09942A88398848885F84CE
:104930006E847D848C849B84AA84B984C884DF803F
:10494000EE80FD800C811B81AA81B981CE0FD11D23
:104950000FB6F894DEBF0FBECDBFED010895AA1BC0
:10496000BB1B51E107C0AA1FBB1FA617B70710F05A
:10497000A61BB70B881F991F5A95A9F7809590958C
:10498000BC01CD010895FB01DC0104C08D910190B3
:10499000801921F441505040C8F7881B990B0895A5
:1049A000FB01DC0102C001900D9241505040D8F74C
:1049B0000895F999FECF92BD81BDF89A992780B5E7
:1049C0000895A8E1B0E042E050E00C940D25262FB8
:1049D000F999FECF92BD81BDF89A019700B40216F5
:1049E00039F01FBA20BD0FB6F894FA9AF99A0FBEA3
:1049F00008950396272F0E94E8240E94E724252F7C
:104A00000E94E824242F0C94E8240196272F0E946A
:104A1000E8240C94E724DC01CB01FC01F999FECFDA
:104A200006C0F2BDE1BDF89A319600B40D92415036
:104A30005040B8F70895F894FFCF98049804C9043B
:104A4000C9045B057705F804F8047C05E305F20565
:104A5000F2051B1427145414661471147C147F146B
:104A60007F147F142D142D148414881490149D1415
:104A7000AA14AD14B014BD14CA14D4143B15AF1548
:104A800043150D151115471515154B1557152115FE
:104A9000A81525155B1529155F1587152D156315A7
:104AA0008E1533156915711519154F151D155315EB
:104AB00037156D157D159715A61507153F15B615F4
:104AC000AF1AB51A9E1AA91ABB1AC11AC71A182307
:104AD0004023292440232924732394232924EB23CE
:024AE000F723BA
:104AE2001502280850011E0A1401371D6C1D651D90
:104AF2005E1D01E200E900EA00B500B600B700CD94
:104B0200008301CC008A0192019401210223022434
:104B1200022502260227022A02B300B4006F0070A7
:104B2200009F01CB01818283E200E900EA00B50027
:104B3200B600B700CD008301CC008A019201940136
:104B42002102230224022502260227022A02B3009E
:104B5200B4006F0070009F01CB01818283C697660B
:104B6200949392919000FF0100010000FFFF00006A
:104B7200010001FF00F433F5324022B661038902DD
:084B8200AB022E02470267029C
:00000001FF
