:100000000C94E7050C9404060C9404060C94040666
:100010000C9404060C9404060C9404060C94040638
:100020000C9404060C9404060C942D2F0C940130AF
:100030000C949A280C9404060C9404060C94040660
:100040000C9404060C9404060C9404060C94040608
:100050000C9404060C9421290C9404060C940406B8
:100060000C9404060C9404060C9404060C940406E8
:100070000C9404060C9404060C9404060C940406D8
:100080000C9404060C9404060C9404060C940406C8
:100090000C9404060C9404060C9404060C940406B8
:1000A0000C9404060C9404060C940406FA00F9005F
:1000B00000000000C55CC65C00000000C95CCA5CB2
:1000C00000000000C35CC45C000000005F00600032
:1000D00061002A005C005D005E00290059005A00A2
:1000E0005B002B0001586200630028000100010042
:1000F00001000100010001000100010001000100F8
:1001000001000100010001000100010001000100E7
:1001100001000100010001000100010001000100D7
:1001200001000100010001000100010001000100C7
:1001300001000100010001000100010001000100B7
:100140000100010001000100010001000A0025304A
:100150003862003A200025303258000A722F63209E
:1001600030313233343536370A00290A002575001C
:100170002F002575005D28002564002000256400FF
:10018000200025640020002564007C0025303258C2
:10019000006D6F7573656B6579205B62746E7C783A
:1001A0002079207620685D287265702F61636C2944
:1001B0003A205B00FD377A585A000004E6D6B44670
:1001C0000200210116000000742FE5A3E0019E004B
:1001D000EA5D003D8889C65436C3174FE4E7E3B0B3
:1001E000AFE0A887706F8BFE0B8C69952A05C3D78B
:1001F000C3567267063274F574B11B4E456AC0E887
:10020000A60A64EA7413077FC68516263EC0A1ECD1
:10021000BC33278FD08FF0D4620577DB0739D8063F
:100220000443E4B964C308CC8A4674F48BE920BD66
:1002300084F7702EE0BC98A1B3FF2DBECF23BD750F
:10024000F37D5D6E09D5D3E0BD6793C6C2967A0192
:1002500037714BFC5707FF51AF196D0E0C16769B8B
:100260008ED077BE8B1DF642638EBF96ECEFCA8DA3
:100270007FD138D578DDF5AF4D1AC853BBF4552D75
:100280009F978FCB15DFFD62E9457455FD3C4326F2
:100290009AEE50A4D3549A50A8385B980FE28AF88B
:1002A00051F95EE7759139962381D6B992639C4ADC
:1002B000B8449FB51A07B9DE67667655000000009E
:1002C00084CDAB2E0743F815000186029F03000082
:1002D000D33F1996B1C467FB020000000004595ACD
:1002E00000000000000000002A2B28000000000091
:1002F00000000000000000000000002900000000D5
:100300002C1E3420212224342627252E362D373842
:10031000271E1F202122232425263333362E37384B
:100320001F0405060708090A0B0C0D0E0F10111209
:10033000131415161718191A1B1C1D2F3130232DD5
:10034000350405060708090A0B0C0D0E0F101112D3
:10035000131415161718191A1B1C1D2F3130354C84
:10036000000000000000000000000000000000008D
:10037000000000000000000000000000000000007D
:10038000000000007E0F00D4FFFFFFC700000078D0
:10039000313A0964656C6179282A31306D73293AE4
:1003A0002025750A323A09696E74657276616C2887
:1003B0006D73293A2025750A333A096D61785F73A8
:1003C000706565643A2025750A343A0974696D656B
:1003D0005F746F5F6D61783A2025750A353A097749
:1003E0006865656C5F6D61785F73706565643A2000
:1003F00025750A363A09776865656C5F74696D65BD
:100400005F746F5F6D61783A2025750A00703A0954
:100410007072696E742076616C7565730A643A094E
:100420007365742064656661756C74730A75703ADF
:10043000092B310A646E3A092D310A6C743A092B82
:1004400031300A72743A092D31300A4553432F7105
:100450003A09717569740A0A7370656564203D20F4
:1004600064656C7461202A206D61785F73706565C6
:1004700064202A2028726570656174202F207469B9
:100480006D655F746F5F6D6178290A776865726565
:100490002064656C74613A20637572736F723D25D8
:1004A000642C20776865656C3D25640A536565207A
:1004B000687474703A2F2F656E2E77696B6970655A
:1004C0006469612E6F72672F77696B692F4D6F7545
:1004D00073655F6B6579730A004D3E20004D25758D
:1004E0003A25733E20003F0A003D2025750A003F53
:1004F0000A0064656661756C74730A0025750A00EC
:100500003F0A000A092D2056616C756573202D0A7B
:1005100000710A000A092D204D6F7573656B6579AE
:10052000202D0A003F00433E20004C25640A000AAB
:10053000092D20537461747573202D0A686F7374CC
:100540005F6B6579626F6172645F6C6564732829A3
:100550003A20253032580A6B6579626F6172645FA8
:1005600070726F746F636F6C3A20253032580A6B6B
:100570006579626F6172645F69646C653A202530E9
:1005800032580A6B65796D61705F636F6E6669677B
:100590002E6E6B726F3A20253032580A74696D6581
:1005A000725F72656164333228293A202530386CD5
:1005B000580A002573000A092D20436F6E736F6C73
:1005C00065202D0A4553432F713A09717569740AE4
:1005D0006D3A096D6F7573656B65790A000A092DAF
:1005E000204D61676963202D0A443A0944656275AC
:1005F00067204D65737361676520546F67676C652D
:100600000A583A094D6174726978204465627567C9
:10061000204D6F646520546F67676C65202D2053F3
:10062000686F77206B657970726573736573206985
:100630006E206D617472697820677269640A4B3A42
:10064000094B6579626F6172642044656275672049
:10065000546F67676C65202D2053686F77206B653A
:10066000797072657373207265706F72740A4D3A97
:10067000094465627567204D6F75736520546F6717
:10068000676C650A563A0956657273696F6E0A534C
:100690003A095374617475730A433A094163746982
:1006A0007661746520436F6E736F6C65204D6F6467
:1006B000650A46312D4631303A09537769746368CB
:1006C00020746F204C6179657220302D39202846C6
:1006D0003130203D204C30290A302D393A095377EA
:1006E0006974636820746F204C6179657220302DC5
:1006F000390A47524156453A09537769746368206D
:10070000746F204C6179657220302028616C7465AB
:10071000726E617465290A423A094A756D702074D7
:100720006F20426F6F746C6F616465720A4553434A
:100730003A094A756D7020746F20426F6F746C6F48
:10074000616465722028616C7465726E61746529DC
:100750000A453A095072696E7420454550524F4D12
:100760002053657474696E67730A4241434B53505A
:100770004143453A09436C65617220454550524FEB
:100780004D0A4E3A094E4B524F20546F67676C65C5
:100790000A006B65796D61705F636F6E6669672EC5
:1007A0007261773A20253032580A2E737761705F74
:1007B000636F6E74726F6C5F636170736C6F636B89
:1007C0003A2025750A2E636170736C6F636B5F74DA
:1007D0006F5F636F6E74726F6C3A2025750A2E73AB
:1007E0007761705F6C63746C5F6C6775693A202524
:1007F000750A2E737761705F7263746C5F726775D0
:10080000693A2025750A2E737761705F6C616C748C
:100810005F6C6775693A2025750A2E737761705F82
:1008200072616C745F726775693A2025750A2E6E65
:100830006F5F6775693A2025750A2E737761705F5F
:1008400067726176655F6573633A2025750A2E735A
:100850007761705F6261636B736C6173685F626123
:10086000636B73706163653A2025750A2E6E6B7237
:100870006F3A2025750A2E737761705F6573636127
:1008800070655F636170736C6F636B3A2025750AE6
:100890000064656275675F636F6E6669672E72617B
:1008A000773A20253032580A2E656E61626C653ABF
:1008B0002025750A2E6D61747269783A2025750AB3
:1008C0002E6B6579626F6172643A2025750A2E6D10
:1008D0006F7573653A2025750A006565636F6E66EE
:1008E00069673A0A64656661756C745F6C61796505
:1008F000723A2025750A003F004E4B524F3A206F46
:1009000066660A004E4B524F3A206F6E0A000A6D1F
:100910006F7573653A206F66660A000A6D6F7573AE
:10092000653A206F6E0A000A6B6579626F617264C6
:100930003A206F66660A000A6B6579626F617264BD
:100940003A206F6E0A000A6D61747269783A206FFE
:1009500066660A000A6D61747269783A206F6E0AE1
:10096000000A64656275673A206F66660A000A6469
:10097000656275673A206F6E0A000A0A4A756D70E3
:10098000696E6720746F20626F6F746C6F6164654D
:10099000722E2E2E2000433E2000436C656172694A
:1009A0006E6720454550524F4D0A005B735D005BFA
:1009B000575D005B535D005B525D005B445D005B17
:1009C000435D001C037600690061006C003A00661C
:1009D0000036003400630032006200330063000020
:1009E000000E0356004F004900440031003600005D
:1009F000000A0356004F00490044000000040309A8
:100A00000409027B00040100A0FA090400000103AC
:100A100001010009211101000122400007058103A5
:100A2000080001090401000203000000092111016E
:100A300000012222000705820320000107050303AD
:100A40002000010904020001030000000921110136
:100A5000000122BC000705840320000109040300F3
:100A600002030000000921110100012222000705F4
:100A70008503200001070505032000011201000283
:100A80000000000855F03335000101020301063172
:100A9000FF0974A1010975150026FF00952075084E
:100AA00081020976150026FF00952075089102C085
:100AB0000660FF0961A1010962150026FF0095206B
:100AC000750881020963150026FF009520750891BD
:100AD00002C005010902A10185020901A100050961
:100AE000190129051500250195057501810295015A
:100AF000750381010501093009311581257F9502B2
:100B00007508810609381581257F950175088106CC
:100B1000050C0A38021581257F950175088106C0EC
:100B2000C005010980A101850319012AB70015013B
:100B300026B700950175108100C0050C0901A101BF
:100B4000850419012AA002150126A002950175103D
:100B50008100C005010906A1018506050719E029E4
:100B6000E71500250195087501810205071900297F
:100B7000EF1500250195F07501810205081901297D
:100B800005950575019102950175039101C0050157
:100B90000906A101050719E029E7150025019508B7
:100BA000750181029501750881010507190029FF6A
:100BB000150026FF00950675088100050819012912
:100BC00005950575019102950175039101C01124E8
:100BD0001FBECFEFDAE0DEBFCDBF12E0A0E0B1E094
:100BE000E8EDF5E602C005900D92AC3CB107D9F7EF
:100BF00023E0ACECB2E001C01D92A53EB207E1F7E4
:100C00000E94CB160C9487320C940000FF93EF9354
:100C1000E091CC02F091CD02309709F00995EF9167
:100C2000FF910895FC018591803011F0EFDFFBCF3B
:100C30000895FF27E0E230E247FF0CC0419597FF9F
:100C400009C0EDE26095709580959095611D711DCC
:100C5000811D911D27FF02C0219530E350E2AA2794
:100C6000660F771F881F991FAA1FA41710F0A41BD7
:100C700063955A95A9F7AA3008F0A95FA05DAF93D4
:100C8000F395611571058105910541F7ED3211F478
:100C9000EF93F395F21718F43F93F395FBCF8F91F1
:100CA000B5DFFA95E1F70895E991F99185918030E2
:100CB00021F0853219F0AADFF9CF089520E0E894F9
:100CC00055915532C1F3503311F4689455915A330C
:100CD00048F4505390F3220F022E220F220F200DC2
:100CE000250FF4CF0EF4219589919991533619F37C
:100CF000533729F1533559F1BC0188279927E894D6
:100D00005C3621F48991999168945591543639F45F
:100D100046EF7EF077FF0DC08FEF9FEF0AC055378B
:100D20004AE039F0583540E121F0523642E009F00E
:100D30000895FF93EF937DDFEF91FF91B7CFFF937E
:100D4000EF93FC0181918030B9F360DFFBCFFF931B
:100D5000EF9368DFF1CFDF93CF93CDB7DEB7259662
:100D6000A3DFCF91DF91089584E0089584E0089592
:100D70009C013A9521153F4150F5FC01EE27F17099
:100D8000BC0166277270AC01442754709C01222775
:100D9000387094FF0EC080E1EF2B09F480E0672BE0
:100DA00009F08062452B09F08064232B89F080686C
:100DB000089581E0EF2B09F480E0672B09F0826051
:100DC000452B09F08460232B19F08860089580E09A
:100DD0000895CF93DF93EB010E94B806FE010995B9
:100DE000DF91CF910895CF93DF93EC01805E91095D
:100DF000089720F06AED7BE0209711F462E679E035
:100E0000CE010E94E9068C2F0E94BE08DF91CF918F
:100E10000895CF93DF93EC010E940F09CE01805E0D
:100E20009109089720F061EE7BE0209711F469E6C4
:100E300079E0CE010E94E906DF91CF91089581E02B
:100E4000089581E008950E942107089508950E9461
:100E500026070895A5E0B0E0E0E3F7E00C94E33165
:100E600049835A833091D30289819A81311119C003
:100E7000662399F0222389F00E94420D182F682FD3
:100E800089819A810E940C0D69817A81812F0E944B
:100E9000771E2596E3E00C94FF310E94270D182F52
:100EA000F3CF0E94420D69817A81F1CFFC01262F98
:100EB000408151816281738184810E942A07089553
:100EC00081E00895CF93DF93EC0160E00E94560724
:100ED000BE010E942707DF91CF910895E1E0F0E085
:100EE000DF0102C0AA0FBB1F6A95E2F7BD01DF0157
:100EF00002C0AA0FBB1F4A95E2F76A2B01C0EE0F92
:100F00002A95EAF7962F9823961302C08E2B089500
:100F1000E0958E230895242F462F682F8091DD02BF
:100F20000E946E070E946C0C08950E944715089558
:100F30000E944B15089508950E94FE0B0E949B0786
:100F40002FEF84E39CE0215080409040E1F700C007
:100F5000000008950E949C070E94452908950E9460
:100F60009C070E94562908950F931F93CF93DF93F8
:100F7000EC018B010E945B1A811106C080E0DF91B9
:100F8000CF911F910F910895B801CE010E94EF1CDF
:100F90008823A1F3B801CE010E942307882371F3AF
:100FA000B801CE010E94CC26882341F3B801CE01BE
:100FB0000E94B41F882311F3B801CE010E943E267F
:100FC0008823E1F2F8018281882361F0CA35FDE5CA
:100FD000DF0701F158F4C115ECE5DE0791F0CE3DD5
:100FE000DC4591F0C8010E941F07C9CFCC358DE5C3
:100FF000D80769F090F0C73ADD45A1F70E94AF0726
:10100000BDCF0E94AA07BACF0E944F12F7CF0E940D
:101010008911E8CF0E949311E5CF0E949711E2CF8A
:10102000CF93DF93EC0161E00E945607BE010E945E
:10103000B407DF91CF9108950E9477280E9451084C
:1010400008950E9455080E947C280895829590E09A
:101050009C01220F331F220F331F2C7C95958795FF
:10106000959587958373282B30E0C901880F991FC8
:101070008A7A359527952575822B089508950E94C3
:101080003E08089581E008950E9442080895089559
:10109000CF93C82F0E943F088C2F0E944408CF9105
:1010A000089580E00E94480808950E9428270E9421
:1010B00048080895CF930E942827C82F8091CE0218
:1010C0008C1779F0C093CE020E9406296093CF025C
:1010D0007093D0028093D1029093D2028C2F0E9401
:1010E0004808CF910895ABE0B0E0E9E7F8E00C9450
:1010F000E4314F83588769877A878B8761110E9413
:10110000A8101E821D8285E0FE013796DE01119631
:1011100001900D928A95E1F78091C90382FF0CC07E
:101120000E946B10882319F082E00E9458110E94DF
:10113000521081110E94D6108C819D81892B61F4FF
:1011400049815A816B817C818D819E810E94A90F8A
:101150002B96E2E00C94003289819A8189238F3F9B
:1011600079F3CE0101960E9460078111E9CFF0CF9B
:10117000FC01808191810E946F0D0895CF93C82F4B
:101180008823E1F08CEF8C0F813AD0F48C2F0E94F1
:10119000EA25811113C06C2F80910001909101010B
:1011A0000E949D27882329F08C2F0E9440100E94C6
:1011B000E4108C2F0E9438100E94E410CF91089503
:1011C00080E28C0F883048F4C77081E001C0880F3E
:1011D000CA95EAF70E948B10EFCFEBE5EC0FE330F6
:1011E00040F4F0E0E15BFE4F808190E00E945D27DB
:1011F000E5CFE8E5EC0FE73150F4F0E0EE0FFF1F2C
:10120000EF5DFE4F808191810E947327D7CFC03F51
:10121000A8F28C2F0E944F170E943A18CFCF882334
:1012200079F19CEF980F913A28F40E9440100E94A7
:10123000E410089590E2980F983050F4877091E090
:1012400001C0990F8A95EAF7892F0E949110EFCF7C
:101250009BE5980F933028F490E080E00E945D2792
:10126000089598E5980F973128F490E080E00E9467
:1012700073270895803F20F00E94B7170E943A1804
:1012800008951F93CF93DF93182FEB010E94BE08A0
:10129000209739F4812F0E940F09DF91CF911F9180
:1012A00008958FE99FE00197F1F700C000002197B2
:1012B000EFCF70E060E0893311F460E570E00E94E8
:1012C00041090895882321F00E948B100E94E410A8
:1012D0000895882321F00E9491100E94E41008953F
:1012E000B0E0A0E0E6E7F9E00C94DD316C01D62F28
:1012F000C72FFC010281F580F2949FE0F9220E9441
:101300008110E82E8823B9F0E02E0023A1F08C2F65
:10131000807F803421F080E28D0F8830D0F0809182
:10132000C90382FF16C082E00E9458110E948110FA
:1013300091E0E82EE926BC2EB2948FE0B822FBE0C3
:10134000FB1508F468C0EB2DF0E0E757FD4C0C945A
:10135000C731E12CF0CF1C2F1F70C07F11F0129508
:10136000107F002399F0112359F080E28D0F88300F
:1013700010F0D11107C0812F0E948B100E94E41041
:101380008D2F41C0812F0E949B10F8CF8D2F0E947E
:101390000F09112309F43FC080E28D0F883010F04F
:1013A000D11104C0812F0E94911003C0812F0E948F
:1013B000A1100E94E4102FC01C2F1F70C07FC032EC
:1013C00011F01295107FDD2381F0D13009F482C035
:1013D000002309F48BC0FF2009F45BC0F60185816E
:1013E00080FFCECF8F70858354C08091C90382FD6A
:1013F00033C0002359F0112329F0812F0E948B1054
:101400000E94E41080E00E94BE0805C080E00E94B7
:101410000F091111C7CFEB2DE850FF0B349720F4C3
:101420000E9428270E944808EE2089F00E94671039
:1014300080FD0DC0F60112820E9461100E94800C96
:10144000C6010E94B00B0E9461100E948C0CCDB7A7
:10145000DEB7E9E00C94F9310023E9F0F11006C0A1
:101460000E94AB10812B0E946209D5CF21E0F212BD
:1014700006C00E94AB10812B0E94BF10CCCF35E07C
:10148000F312EECF0E94D6100E944F10812B0E94C3
:10149000B210812FE8CFF11003C00E94D61011C006
:1014A00081E0F81212C00E948810812309F4B3CFA2
:1014B0000E94D6100E944F10912F909589230E9470
:1014C000B210812F0E946909A6CF95E0F91609F4A0
:1014D000A2CFE3CF002329F0E5E0EF1508F49BCF7E
:1014E000D8CFF4E0FF1508F496CFEBCFFF2049F3F7
:1014F000D93349F4FFEF27EE33E0F150204030407C
:10150000E1F700C000008D2F0E940F0984CF8C2FBF
:1015100086958695837069F0813009F07CCF8D2F98
:101520009C2F9370011102C090E080E00E9473270D
:1015300072CF8D2F9C2F9370011102C090E080E03C
:101540000E945D2768CF8D2F002329F00E944F173E
:101550000E943A1860CF0E94B717FACF8C2F837081
:1015600079F5011158CF4D2F429546954770440F9C
:10157000440F8D2F8F70042E01C0880F0A94EAF754
:101580002D2F2071D4FF07C02FE030E001C0220FC3
:101590004A95EAF72095C695C695C370822BC2304E
:1015A00049F058F4C13019F00E945A0C34CF0E940F
:1015B000540C31CF0E94600C2ECF0E94510C2BCFC7
:1015C0008695002311F08C2F8170882309F423CF96
:1015D0004D2F429546954770440F440F8D2F8F70C5
:1015E000042E01C0880F0A94EAF72D2F2071D4FF32
:1015F00007C02FE030E001C0220F4A95EAF720959E
:10160000C695C695C370822BC23049F058F4C130DC
:1016100019F00E94AB0CFFCE0E94A50CFCCE0E94DC
:10162000B10CF9CE0E946C0CF6CECF70002329F0DD
:101630008C2F0E94800C8D2F16CF8D2F0E94690950
:101640008C2F0E948C0CE7CED23F51F160F4D03F3A
:10165000B9F0D13F81F0002309F45AC0F11090CEC7
:101660008C2F8F7121C0D33F11F1D43FA1F780910E
:10167000C90382FD26C08C2F8F71002311F314C083
:10168000002349F084E08F1508F4C5CE8C2F8F71AC
:101690000E94990CC0CE95E09F1508F4BCCEF6CF01
:1016A0008C2F8F710111CDCF0E94800CB4CE0023FE
:1016B00029F08C2F8F710E94770CADCE0E94730C95
:1016C000AACE0023C1F00E946710843041F40E942A
:1016D0004E118C2F8F710E948C0CE12C9CCEE4E07B
:1016E000EF15D8F3CF718C2F0E94800C63E08C2F04
:1016F0000E943011F2CFF4E0FF1530F40E944E1139
:1017000064E08C2F8F71F4CF81E00E945811E5CFF7
:10171000FF2059F0D93309F0F6CE2FEF37EE83E0F2
:10172000215030408040E1F7ECCE8C2F8F7189CF73
:101730000F931F93CF93DF93EC01688179818A81A6
:101740000E947A0D8C010E94B70C0E94500CB801C7
:10175000CE010E947009DF91CF911F910F910895E2
:10176000CF93DF93EC018B819C81892B29F08881B9
:10177000998189238F3F51F4DF91CF910895CE0154
:101780000E94980BCE010E946207F6CFCE010E9404
:1017900010088111F4CF0E948110882369F38A8197
:1017A000882351F38091C90382FFE6CF82E00E9433
:1017B0005811E2CF882321F00E949B100E94E41070
:1017C0000895882321F00E94A1100E94E41008953A
:1017D00090E080E00E945D2790E080E00E94732707
:1017E0000E94A8100E94E4100E94D8180E943A1883
:1017F00008950E9448100E94E80B08950E949810D6
:101800000E94F90B089592959F70963091F058F4CC
:10181000925F9F70923058F4803F19F030F4883E08
:1018200030F481E008959A5FF4CF843FD1F380E0F3
:101830000895883EB0F3813FD1F7F3CFFC01838157
:101840009481892B29F08081918189238F3F11F424
:1018500080E00895808191810E946F0D0E94030CA9
:101860000895A5E0B0E0E7E3FCE00C94E4312596B0
:10187000E2E00C940032A6E0B0E0E1E4FCE00C947D
:10188000E4312696E2E00C94003208950E94450C63
:1018900008950E94460C8093DE020E94E80B089592
:1018A00008950E94490C08959091DE02892B0E94B0
:1018B000490C08959091DE0289230E94490C0895F5
:1018C0009091DE0289270E94490C08950E94450CE0
:1018D00008950E94660C08950E94690C8093DD02B1
:1018E0000E94E80B089580E00E946C0C089591E03E
:1018F00001C0990F8A95EAF7892F0E946C0C089510
:1019000021E030E001C0220F8A95EAF78091DD02E4
:10191000822B0E946C0C089521E030E001C0220F60
:101920008A95EAF720958091DD0282230E946C0C53
:10193000089521E030E001C0220F8A95EAF78091F6
:10194000DD0282270E946C0C08959091DD02892BA4
:101950000E946C0C08959091DD0289230E946C0C0A
:1019600008959091DD0289270E946C0C08950895D6
:10197000262F277091E001C0990F2A95EAF723E0FE
:10198000769567952A95E1F7FB01EE0FFF1FE60FAD
:10199000F71FE40FF51F50E040E0682F70E08191E1
:1019A000DF0111979B01042E02C0369527950A94FA
:1019B000E2F7217021952827292328272C934F5FB0
:1019C0005F4F4330510559F70895A82FA77023E0C2
:1019D000969587952A95E1F7FC01EE0FFF1FE80F1A
:1019E000F91FE60FF71F50E040E080E0219130E062
:1019F0000A2E02C0369527950A94E2F72170332704
:101A0000042E01C0220F0A94EAF7822B4F5F5F4F2A
:101A10004330510559F70895282F862F903F71F0D4
:101A2000943068F4243050F434E0939FB0011124D2
:101A3000620F711D47ED52E00E94B80C08959C5F43
:101A40009230E0F7622F70E044ED52E0F5CF903F26
:101A5000B9F0943070F4843098F444E0949F90018D
:101A6000112467ED72E0820F932F911D0E94E50C07
:101A700008959C5F923020F464ED72E090E0F6CF20
:101A800080E00895CF92DF92FF920F931F93CF9340
:101A9000DF936C010091DD028091DE02082BC7E02C
:101AA000D0E010E0FC2EC8010C2E02C09595879561
:101AB0000A94E2F780FD0CC02197A0F7F12C8F2D3E
:101AC000DF91CF911F910F91FF90DF90CF900895FC
:101AD000B6018C2F0E942714019771F3F0CFCF939A
:101AE000DF93EC010E94420DBE010E942714DF919A
:101AF000CF9108951F93CF93DF93EB019091D30281
:101B0000992339F0CB010E946F0DDF91CF911F9186
:101B10000895882369F0CB010E94420D182F682F89
:101B2000CE010E940C0DBE01812F0E942714EDCF23
:101B3000CB010E94270D182FF6CF1F93CF93DF9371
:101B4000C091DF0216E08091E0028C1304C0DF91A7
:101B5000CF911F910895D0E01C9FF0011D9FF00DC3
:101B60001124EF51FD4F4081518162817381848145
:101B700095810E943B0C2196C770E5CF40911103DF
:101B80005091120360911303709114038091150317
:101B9000909116030E943B0C08951F93CF93DF93FF
:101BA00080911603807F09F049C080911303882338
:101BB00009F444C08091DF02C091E00260911103FA
:101BC00070911203A0911403B0911503D62FD7235F
:101BD00016E0C81799F190E0109711F0DF3F19F463
:101BE00001968770F6CF189F9001199F300D112430
:101BF000F901EF51FD4F41814713F2CF4081461368
:101C0000EFCF42814111ECCF438154814A1B5B0BE2
:101C1000483C510528F7809116038F7080618093AE
:101C20001603F901EA51FD4F80818F708061808336
:101C300081E193E00E94B00B0E949D0DDF91CF9156
:101C40001F910895A1E1B0E0E8E2FEE00C94DC31E0
:101C50008C0185E0F801DE011D9601900D928A95B8
:101C6000E1F7F801E28081E1C82E83E0D82E60918F
:101C70001403709115036115710509F44EC190911B
:101C8000110320911203892F82238F3F09F445C14C
:101C900040815181A380B480F0901303F501E61BCD
:101CA000F70BFF2009F4EAC080911603382F307F2C
:101CB000E83CF10508F0A3C031116DC0FE2C2513DE
:101CC00016C0941314C0E11012C08F70806180930D
:101CD00016030E94BE0DC6010E94B00B8091160330
:101CE000F80185838F2D6196EAE00C94F831A114F8
:101CF000B10429F0842F85238F3F09F027C180E0AC
:101D0000F82FF170DF2E80FF3CC08091DF02209120
:101D1000E00236E0821315C04D875E878D859E8573
:101D20000E946F0D292F22952F702230F0F0243061
:101D300018F59F70F1F0F8019581907FD1F4D12CC6
:101D40001EC090E0389FF001399FF00D1124EF5133
:101D5000FD4F6181651306C06081641303C0628119
:101D6000E6120FC001968770D5CF9F7011F08823BF
:101D700031F3805E883018F3C8010E94B00BFD2C4F
:101D8000B1CFEE2009F4AECF80911603816080932D
:101D90001603F12CA7CF251306C0941304C0F80135
:101DA000EE2009F487C0C8010E941E0C882319F197
:101DB000EE2009F180911603803270F0209111031A
:101DC0003091120338872F831986BB86AA868C87A9
:101DD000CE0107960E94B00B86E0F801A1E1B3E0C6
:101DE00001900D928A95E1F70E94CD0D0E94BE0DE3
:101DF000FF24F39477CFC8010E94B00BF9CF3111C3
:101E000013C07A2DB98AA88A6E2D89890E94310C57
:101E100081E193E00E94B00B86E0F60111928A9571
:101E2000E9F70E94BE0DB5CF25130FC094130DC066
:101E3000E1100BC0F8018583C8010E94B00B86E059
:101E4000F60111928A95E9F74DCFC8010E941E0C48
:101E5000882389F2EE2079F280911603803208F40B
:101E6000BBCF20911103309112033A8329831B8247
:101E7000BD82AC828E83CE010196ACCFE83CF105E9
:101E800008F03EC0FE2CEE2009F4B5CF25132AC081
:101E9000941328C08091160380FD1BC0982F907F5B
:101EA000C1F0F8018583903F31F0982F907F905FCB
:101EB0008F70892B8583C8010E94B00B86E0F801E2
:101EC000A1E1B3E001900D928A95E1F70E94BE0D69
:101ED00009CF86E0F801A1E1B3E001900D928A9567
:101EE000E1F700CFC8010E941E0C811175CF8091CF
:101EF0001603816080931603C8010E94B00BF2CED6
:101F00007A2DB98AA88A6E2D89890E94310C86E0C3
:101F1000F60111928A95E9F7D9CFEE2009F46BCF3B
:101F2000C8010E941E0CF82E882309F464CF86E0B5
:101F3000F801A1E1B3E001900D928A95E1F781E10A
:101F400093E00E94B8080E94CD0DC0CF81E08E259D
:101F5000D7CEACE0B0E0EFEAFFE00C94E3314F8382
:101F6000588769877A878B879C87CE0107960E945E
:101F7000220E882369F08A859B85892B39F04F8151
:101F80005885842F85238F3F09F06BC016E05FC012
:101F900086E0FE013796DE01119601900D928A953A
:101FA000E1F78A859B85892B89F38F819885892321
:101FB0008F3F61F32091E00230E0C9010196877004
:101FC00099274091DF024817190671F40E94FE0B11
:101FD0001092E0021092DF0286E0E1E1F3E0DF011F
:101FE0001D928A95E9F7D2CF96E0929FD001939FF8
:101FF000B00D1124AF51BD4FFE01319601900D92ED
:102000009A95E1F78093E0020E949D0DBFCF819FDA
:10201000C00111248F519D4F0E94220E8823E9F0A8
:10202000E091DF021E9FF0011124EF51FD4F40812E
:10203000518162817381848195810E943B0C8091E2
:10204000DF0290E00196877099278093DF028091EC
:10205000DF029091E0028913DACF2C96E3E00C9432
:10206000FF3169857A858B859C850E943B0C8ECFDC
:10207000682F80910001909101010E941D28089510
:10208000682F80910001909101010E942B280895F2
:1020900080910001909101010E943928089580915A
:1020A0003C0308950E94FA2820913A0330913B03A3
:1020B000821B930B9C0181E02838334108F480E0B7
:1020C000089580913903859585958595089580912A
:1020D0003903877008950E94FA28209137033091C0
:1020E0003803821B930B8838934148F08091390361
:1020F00082FB882780F991E089278170089580E02C
:10210000FCCF90913903977081E009F480E0089545
:1021100080915F03089590915F03892B80935F0303
:102120000895809590915F03982390935F0308959D
:1021300010925F03089590915E03892B80935E0354
:102140000895809590915E03982390935E0308957F
:1021500010925E03089580913D03089508950E94B2
:10216000AE10089590913C03981721F080933C03A2
:102170000E94AF10089508950E94BB100895CF9358
:10218000C82F8091C90382FF0FC080913D038C1737
:1021900059F00E94FA2890933B0380933A03C0932E
:1021A0003D038C2F0E94BC10CF91089580913D0378
:1021B000882349F010923D0310923B0310923A039A
:1021C00080E00E94BC100895CF93DF93E09100015E
:1021D000F091010180915F038083E0910001F09113
:1021E0000101808190915E03892B808380913D0362
:1021F0008823B9F00E94521081110E94D610E091FC
:102200000001F0910101808190913D03892B808331
:1022100080910001909101010E94892781110E9403
:10222000D610C0910001D091010140E250E067E179
:1022300073E0CE010E942832892B59F080E2FE0122
:10224000A7E1B3E001900D928A95E1F7CE010E94DB
:102250003527DF91CF91089508950E942C1108959C
:102260009091C90392FF17C098E0899F90011124B3
:10227000622B609339030E94800C0E94FA2890938D
:10228000380380933703809139038595859585952B
:102290000E942D1108950E94800C08951092390318
:1022A000109238031092370380E00E942D11089598
:1022B000909139038095892380933903282F2770C3
:1022C00091F4282F082E000C330B9217130659F0A7
:1022D0009091C90392FF07C08595859585950E94C9
:1022E0008C0C0E944E1108959091C90392FB2227F5
:1022F00020F9281769F080FB92F99093C903809127
:10230000C8039091C9030E94C61182E00E9458112F
:1023100008958091C90382FB882780F991E089277D
:102320000E947411089581E00E947411089580E064
:102330000E94741108956FEF7FEF90E080E00E949B
:102340007132089590E080E00E944D32883E9E4FA9
:1023500019F40E94F619089580E0089582E090E053
:102360000E944532089583E090E00E94453208952E
:10237000CF9384E090E00E944532C82F82E290E043
:102380000E944532982F8C2FCF910895CF93C92F5B
:10239000682F84E090E00E9453326C2F82E290E03C
:1023A0000E945332CF910895AB01BC018FE090E0C1
:1023B0000E9465320895AB01BC0183E190E00E9468
:1023C0006532089560E070E0CB010E94DB11089552
:1023D00060E070E0CB010E94D4110E94E2110895E8
:1023E00068EE7EEF90E080E00E94713260E082E073
:1023F00090E00E94533260E083E090E00E9453320C
:102400001092DE0260E084E090E00E94533264E0CB
:1024100082E290E00E94533260E085E090E00E940A
:10242000533260E086E090E00E9453326FEF87E025
:1024300090E00E94533240E050E0BA0188E090E022
:102440000E94653260E08DE090E00E94533240E0EF
:1024500050E0BA0188E190E00E94653260E087E1D7
:1024600090E00E94533240E050E0BA018CE190E0ED
:102470000E94653270E060E080E290E00E9471327C
:1024800040E050E0BA0188E190E00E94653280E0CF
:102490000E940F1A0E943E1A0E94E81108950E949D
:1024A000F0110895682F8EE090E00E945332089555
:1024B0000E94062960936E0370936F0380937003EC
:1024C0009093710360936A0370936B0380936C0322
:1024D00090936D0308950E94062960936E03709394
:1024E0006F038093700390937103609366037093FE
:1024F000670380936803909369030895089508958E
:102500000E947F12089508950E948312089581E821
:102510009BE20E941E270E949D1B0E947E120E9429
:102520008012089581E008950E94921208950895FE
:1025300008950E9497120E94981208950E942B15E8
:102540000E94470808950E94F1280E944E1A0E9496
:102550002C160E949E120E94F0210E94841208955F
:10256000AAE0B0E0E6EBF2E10C94DC310E94421606
:1025700082E6A82E83E0B82E750110E0F7010191E4
:102580007F01812F0E944E151F5F143009F440C057
:102590000817A1F38091720381FD0E9454150E94D7
:1025A0009412C82E10E0812F0E944E15082FF501BD
:1025B00081915F01081731F1D02ED826F12CEE243D
:1025C000E3948D2D8E21B1F0CC20A1F0FE821F83EB
:1025D00091E0802F8E2109F490E098870E94FA28DC
:1025E0008160782F9A8789874E815F8168858A8587
:1025F0000E947308F394EE0CF4E0FF12E2CFF501B1
:10260000319700831F5F143071F60E94581220C06A
:102610000813C0CF0E94FA288C018091600390912A
:10262000610308171907A1F08FEF89838A831B8242
:102630000E94FA288160782F9D838C8349815A817A
:102640006B818D810E947308109361030093600376
:102650000E94612281110E946B120E94FA180E944E
:102660005A082A96EAE00C94F831CF93DF930E943F
:102670002C14EC01811521E5920708F042C0811568
:1026800030E5930708F09FC0883E910530F5803E05
:10269000910508F094C0883A910588F4853A91052F
:1026A00008F086C08130910509F489C0009709F4CB
:1026B00086C0049708F083C0D0E0C0E080C08F3BA4
:1026C0009105D0F7C85AD0E0CC0FDD1FCE5ADE4FAF
:1026D0000990D881C02DD46472C0811540E294075E
:1026E00050F4C11581E0D80708F069C0C03FD1059A
:1026F00018F3D06564C081159044F0F2DF70D06AA1
:102700005EC0811535E5930718F5811544E59407FA
:1027100008F086C0C11583E5D80708F06DC0C11563
:1027200022E5D20708F463C0CE018370992721E027
:1027300030E002C0220F331F8A95E2F7C695C69596
:1027400080E2C89FE0011124C22BD32BDC6837C084
:10275000811539E59307A8F4811548E5940708F039
:1027600064C0C11586E5D80708F0A6CF8C2F0E945B
:10277000CE14C82FD0E0DC2FCC27CC27DF71D0625D
:102780001EC081152AE5920708F454C090568115A1
:10279000904208F091CF8D2F8F710E94CE1490E05F
:1027A000982F882788279F719C012C2BE901E7CF60
:1027B000C55AD0E0C058DE4FC881D0E0D064CE0109
:1027C000DF91CF910895282F26952695237040E21A
:1027D000249F900111248370C1E0D0E002C0CC0F8F
:1027E000DD1F8A95E2F7C22BD32BDD68E8CFDC2F03
:1027F000CC27C16FD06AE3CFCE018370992721E047
:1028000030E002C0220F331F8A95E2F7C695C695C5
:1028100040E2C49FE0011124C22BD32BDA68CFCF52
:10282000D82FCC27C46FD06ACACFD82FCC27C06F7F
:10283000D06AC5CF8F700E94CE1434E0D695C7956C
:102840003A95E1F7CF709C2FEC01D069B8CF0E9488
:10285000771E0E943513089582389105B9F1B0F4BE
:102860008133910509F47DC048F48932910509F45A
:102870006DC08A32910509F47BC0089585339105B6
:1028800009F45FC08933910509F10895833E9105EC
:10289000D9F138F4803E910529F1823E910579F114
:1028A0000895863E9105D9F1873E910509F43EC011
:1028B000843E910541F52091C90321FF24C08091F8
:1028C000C80384FD19C087EE90E008952091C803E5
:1028D000237009F05AC02091C90323FF14C089E274
:1028E00090E008952091C80320FD38C03091C903BD
:1028F00030FF09C024FF43C090E080E0089520919C
:10290000C80322FDF7CF08952091C80322FD3AC0E5
:102910003091C90330FD39C024FFF5CFEDCF2091B0
:10292000C80323FFF0CF24FDE7CFCDCF2091C8030C
:1029300023FD2EC03091C90331FFEECF84EE90E02D
:1029400008952091C80325FFDECFC9CF2091C80389
:1029500025FD21C02091C90323FFD5CF89E390E055
:10296000D2CF2091C80326FFCECF8AE290E008950F
:102970002091C80326FFC7CF81E390E0089583EE3E
:1029800090E0089582EE90E0089580EE90E0089542
:1029900086EE90E0089585E390E008959091C80355
:1029A00092FF06C0282F28712830F9F4877F8460B1
:1029B00093FF06C0282F28712831F1F4877E8461A7
:1029C0002091C90320FF06C0382F38713830D9F460
:1029D000877F816021FF06C0282F28712831D1F41C
:1029E000877E816194FD877E0895282F247124308D
:1029F000F9F68B7F8860DCCF282F2471243101F712
:102A00008B7E8861DDCF382F3171313019F78E7FA1
:102A10008860E0CF282F2171213121F78E7E8861D7
:102A2000E1CF0E949B1108950E9442168FE39CE91A
:102A30000197F1F700C000000E94421680E00E945A
:102A40004E1580FF04C00E9411150E94452908956B
:102A50000E94141508950E94A211811102C00E94C3
:102A60004F120E94AE11809372030E94B81190938E
:102A7000C9038093C8030E9428150E94B3110E94C5
:102A8000510C8091DD020E94690C089508950E9406
:102A90004615089508950E944A150895E82FF0E01C
:102AA000E253FC4F80810895B0E0A0E0EAE5F5E153
:102AB0000C94DE318BE591E00E9412068EECE82E3C
:102AC00083E0F82ED0E0C0E096E5C92E91E0D92E43
:102AD0000EE411E0DF93CF93DF92CF920E94AB061A
:102AE00083E591E00E941206F70181917F010E9427
:102AF00026081F928F931F930F930E94AB068CE4BE
:102B000091E00E94120621968DB79EB708960FB6E7
:102B1000F8949EBF0FBE8DBFC430D105D9F6CDB796
:102B2000DEB7E8E00C94FA3180EA8A95F1F708956F
:102B300000C008950E9494150895F894E82FE29536
:102B4000EF70F0E031A1282F2F7081E090E001C0FC
:102B5000880F2A95EAF7982F9095932391A392A135
:102B6000892B82A37894089583E90E949D1582E9B8
:102B70000E949D1581E90E949D1580E90E949D1586
:102B800086EC0E949D1587E90E949D1586E60E94AD
:102B90009D1584E90E949D150895B0E0A0E0E3ED45
:102BA000F5E10C94DE31EC01D62E062F10E0C801C1
:102BB00089579E4F7C01FC0180818F3F09F445C0FD
:102BC000F894E82FE295EF70F0E091A18F7021E08A
:102BD00030E001C0220F8A95EAF7892F822B81A36A
:102BE00082A12095282322A378940E949815E3E8D7
:102BF000F1E047E851E031E0C12C21912F3F51F144
:102C0000A22FA295AF70B0E090968C9190E02F70BB
:102C100002C0959587952A95E2F780FD1BC0832F0A
:102C2000C82A330F4E175F0741F7F70180818F3FA6
:102C300011F00E949D1561E0C11001C060E08D2D72
:102C40000E949A15C00FD11FC882CDB7DEB7E8E049
:102C50000C94FA3180E0E4CF0E94B41584E0EEECED
:102C6000F3E0DF01982F1D929A95E9F7EAECF3E083
:102C7000DF011D928A95E9F784E00E947F160E9489
:102C800095070895A4E0B0E0E8E4F6E10C94E331A0
:102C900019821A821B821C8210E0612FCE010196DC
:102CA0000E94CD151F5F1430C1F744E050E0BE0113
:102CB0006F5F7F4F8AEC93E00E94283221E00097FB
:102CC00009F420E0892B61F089819A81AB81BC8174
:102CD0008093CA039093CB03A093CC03B093CD030E
:102CE00044E06EEC73E08AEC93E00E948016182FAB
:102CF0000E949807812F2496E3E00C94FF310895F9
:102D0000CF92DF92EF92FF920F931F93CF936C01BC
:102D10007B01042F222349F081E0809375030E94F8
:102D2000FA289093740380937303C0917503C111C3
:102D30000AC0C0E08C2FCF911F910F91FF90EF90B0
:102D4000DF90CF90089580917303909174030E9457
:102D50001229059770F310E0A801B601C7010E947F
:102D60002832892B41F0A801B601C7010E943532F3
:102D700010927503DFCFC0E0FBCF0E94FD2B0E94B5
:102D8000A3120E940A2C08950E940F2C0E94B012D8
:102D90000E942D2C08950E9493280E94E32B0E94EC
:102DA00087120E94BD160E94C4160E949912FBCF82
:102DB00080917C0380FF0DC06091070170E0660F79
:102DC000771F6038710570F56115710569F1862FFF
:102DD000089581FF07C06091070184E0689FB001FA
:102DE0001124EFCF6091070182FD0AC080917B031F
:102DF0008823A9F02091060160910701821710F045
:102E000088E0ECCF869FC001112433E0880F991F22
:102E10003A95E1F7622F70E00E94B331D2CF68E0BB
:102E200070E0D5CF8FE7089581E0089580917C030D
:102E300080FF0CC06091030170E0759567957595F2
:102E400067956115710549F1862F089581FF06C0C8
:102E50006091030170E075956795F3CF6091030170
:102E600082FD0BC090917A039923A1F06091020139
:102E700080910301961738F0682F70E06038710573
:102E800000F38FE70895899FC001112470E00E942C
:102E9000B331F4CF61E070E0D7CF81E00895803F97
:102EA00031F40E94D8168195809380030895813F64
:102EB00019F40E94D816F8CF823F31F40E94D81638
:102EC000819580937F030895833F19F40E94D8165B
:102ED000F8CF893F29F40E94161780938103089543
:102EE0008A3F21F40E9416178195F7CF8B3F31F46A
:102EF0000E94161781958093820308958C3F19F4E0
:102F00000E941617F8CF843F31F480917E038160D0
:102F100080937E030895853F21F480917E03826033
:102F2000F7CF863F21F480917E038460F1CF873F05
:102F300021F480917E038860EBCF883F21F480915B
:102F40007E038061E5CF8D3F31F480917C03816009
:102F500080937C0308958E3F21F480917C038260EE
:102F6000F7CF8F3FB9F780917C038460F1CF9091C8
:102F70007F03803F59F48091800387FF0DC010923A
:102F8000800391110BC010927B0308C0813F81F434
:102F90008091800318169CF3992381F0809181031E
:102FA00090918203892B09F064C010927A030895EE
:102FB000823F49F497FFF0CF10927F038091800306
:102FC0008111ECCFE0CF833F19F41916ACF3E4CFB5
:102FD00020918103893F29F41216F4F6109281039F
:102FE000DBCF8A3F19F427FFD7CFF8CF2091820398
:102FF0008B3F29F427FFD0CF10928203CDCF8C3F97
:1030000019F41216CCF3C8CF843F31F480917E03BB
:103010008E7F80937E03C0CF853F21F480917E0315
:103020008D7FF7CF863F21F480917E038B7FF1CF98
:10303000873F21F480917E03877FEBCF883F21F487
:1030400080917E038F7EE5CF8D3F31F480917C03AC
:103050008E7F80937C03A0CF8E3F21F480917C03F0
:103060008D7FF7CF8F3F09F097CF80917C038B7FC7
:10307000F0CF08958091720383FF7EC081E991E0D3
:103080000E94120680917E031F928F938CE891E03C
:103090009F938F930E94AB068AE891E00E941206EC
:1030A00080917F03282F082E000C330B3F938F93C2
:1030B00087E891E09F938F930E94AB0685E891E0AB
:1030C0000E94120680918003282F082E000C330BDB
:1030D0003F938F9382E891E09F938F930E94AB067A
:1030E00080E891E00E94120680918103282F082E2B
:1030F000000C330B3F938F938DE791E09F938F9359
:103100000E94AB068BE791E00E9412068091820339
:10311000282F082E000C330B3F938F9388E791E004
:103120009F938F930E94AB0685E791E00E94120661
:1031300080917B031F928F9382E791E09F938F93FF
:103140000E94AB0680E791E00E94120680917C030A
:103150001F928F938DE691E09F938F930E94AB0611
:103160008AE691E00E9412068DB79EB74C960FB684
:10317000F8949EBF0FBE8DBF0E94FA289C019091CB
:103180007F0380918003982B21F030937903209363
:1031900078039091810380918203982B21F03093E2
:1031A0007703209376038DE793E00E944F270895DD
:1031B00086E0EDE7F3E0DF011D928A95E9F71092D2
:1031C0007B0310927A0310927C030895FC018281A4
:1031D00081110EC0838181110BC08481811108C0CF
:1031E00091E08581811101C090E0892F817008955F
:1031F00081E0FCCFA6E0B0E0E0E0F9E10C94E3313F
:1032000086E0EDE7F3E0DE01119601900D928A95DC
:10321000E1F710927F0310928003109281031092C5
:1032200082038B819C81892B89F080917803909116
:1032300079030E941229AC0190917B039923C9F173
:10324000809108018417150608F440C08D819E8185
:10325000892B91F080917603909177030E94122937
:10326000AC0190917A03992309F471C08091040113
:103270008417150608F479C0BE016F5F7F4F8DE794
:1032800093E00E944B28811105C08DE793E00E94D6
:10329000E61881110E943A1886E0FE013196ADE7EA
:1032A000B3E001900D928A95E1F72696E3E00C9445
:1032B000FF31209109018AE0289F900111242417F1
:1032C000350720F69F5F90937B0302C09F3FD1F7A5
:1032D0001B81112359F00E94D8169FEF11160CF490
:1032E00091E0899F802D112480937F031C811123FD
:1032F00059F00E94D8169FEF11160CF491E0899FA7
:10330000802D11248093800330917F03332309F4AF
:103310009DCF20918003222309F498CF45EB3403FD
:10332000C0011124992359F090937F0345EB2403A6
:1033300090011124332339F03093800387CF81E04B
:1033400080937F03F3CF81E0809380037FCF209130
:1033500005018AE0289F900111242417350708F001
:103360008BCF9F5F90937A0302C09F3FD1F71D815F
:10337000112359F00E9416179FEF11160CF491E0DB
:10338000899F802D1124809381031E81112359F080
:103390000E9416179FEF11160CF491E0899F802D63
:1033A00011248093820330918103332309F464CF85
:1033B00020918203222309F45FCF45EB3403C0013F
:1033C0001124992359F09093810345EB2403900134
:1033D0001124332339F0309382034ECF81E0809360
:1033E0008103F3CF81E08093820346CF83E290E0B4
:1033F0000E944532873889F484E290E00E94453289
:10340000813359F485E290E00E94453291E08130A9
:1034100009F090E0892F8170089580E0FCCFCF9370
:10342000C82F6FEF811167E883E290E00E9453326A
:103430006FEFC11161E384E290E00E9453326FEFBD
:10344000C11161E085E290E00E945332CF9108956E
:10345000089586E290E00E944532682F70E090E087
:1034600080E008950895CF93C62F0E94321A6C2FE2
:1034700086E290E00E945332CF91089580E00E944E
:103480000F1A60E070E0CB010E94331A0E94AC1D5D
:103490000E94F01E81E00E940F1A08950E94281ACF
:1034A0000E94291A0E94321A0E94F619811102C044
:1034B0000E943E1A0895CF93FB01C281CC2309F1EB
:1034C0009C0122513F452031310520F582510E9457
:1034D000001FC0E08C2FCF91089581E00E94800CE6
:1034E00043E062E081E00E948B07F3CF81E00E941D
:1034F0008C0C43E062E081E00E948B07EBCF82E01E
:10350000F6CF8031FFE59F0789F381319F45B9F3FD
:10351000C1E0E0CF8031EFE59E07F9F281319F45B0
:10352000C9F682E0DBCF2FEFFC0120830895EF92F4
:10353000FF920F931F93CF93DF93EC01062F8881A7
:103540002091850330918603232B79F08E3F09F07B
:1035500057C08981833020F08550833008F050C0F7
:10356000602FCE010E949E1B4BC08C3009F4A0C07E
:10357000D0F4843009F483C060F4823009F449C087
:1035800008F070C08130C9F1602FCE010E94931AFB
:1035900037C0863009F489C008F47CC08A30A0F7AF
:1035A0008FEF88832DC0803109F49FC0D8F48E300E
:1035B00009F48AC008F480C080910A0190910B013F
:1035C000892BF1F06B8170E06D317105C8F4898150
:1035D0009A81AE014C5F5F4F9827892798270E94F8
:1035E000CB1E0EC0823109F486C008F481C083313D
:1035F00009F492C08E3F41F6B3CF198289E08A83E5
:10360000602FCE010E94FA29CDB7DEB7E6E00C9418
:10361000FC318981823071F0833079F0813009F09A
:10362000B3CF0E9406290E94CD316A837B838C83AD
:103630009D83E6CF0E94291AF6CF80910A019091CE
:103640000B01892BE9F27E0182E0E80EF11C10E00B
:10365000812F0E944E15F70181937F011F5F143067
:10366000B9F7CECF8981823009F08ECF6A817B8114
:103670008C819D810E94CD310E94331AC1CF4B8134
:103680006A8189810E94041D9827892798279D8334
:103690008C83B6CF2C813D813227232732274B8163
:1036A0006A8189810E94261DABCF0E94AC1DA8CFE4
:1036B0000E94A11E8983A4CF0E94A31E9827892758
:1036C00098279A8389839CCF6B8170E06D31710557
:1036D00008F096CF89819A81AE014C5F5F4F9827A1
:1036E000892798270E94A61E8BCF0E94F01E88CFA4
:1036F0000E94F11CDFCF6B8170E06D31710508F025
:103700007FCF89819A81AE014C5F5F4F98278927CF
:1037100098270E94271E74CF6B8170E06D31710570
:1037200008F06ECF89819A81AE014C5F5F4F982778
:10373000892798270E944A1E63CF0895A8E0B0E029
:10374000E4EAFBE10C94E0318C01603269F5DC01C4
:103750001196EC911197EE3038F5F0E0EB56FD4CF8
:103760000C94C73188E0E9E1F1E0DE0111960190A7
:103770000D928A95E1F780E2F80111928A95E9F7B6
:1037800085E0D8018C9311961C92119712961C9289
:10379000129713961C92139788E0FE0131961496A7
:1037A00001900D928A95E1F72896E6E00C94FC31A1
:1037B0008CE2F801808381E0818312821382F4CF4E
:1037C00013968C911397682F70E0762F66271296C8
:1037D0008C91860F972F911D092E000CAA0BBB0B05
:1037E00025E0880F991FAA1FBB1F2A95D1F7AC01AE
:1037F000BD01405E5F4F6F4F7F4F481759076A0703
:103800007B0790F28C32E1E09E07A105B10560F6DE
:103810004D32F1E05F076105710520F04CE251E0A7
:1038200060E070E0481B590BBC016C547E4FC8012E
:103830000E941F32B9CF1296FC9012971396EC900B
:1038400040E06E2D8F2D0E94421D982789279827D2
:10385000F8019183808341E06E2D8F2D0E94421DDF
:10386000982789279827D80113969C938E931297AF
:103870009BCFFC0125813681322723273227211552
:10388000FCE53F0741F480910A0190910B01892BDF
:1038900011F430E020E041E0D80114968C918111C0
:1038A00001C040E0F801638182810E947B1D7CCFD2
:1038B00040E250E06FEF70E00E943E3280910A01DA
:1038C000D8018C938091850311968C936DCF81E004
:1038D00090E0909386038093850382E390E0909339
:1038E0008403809383030E94FA285ECF80910A01AB
:1038F000F801808380918503818380918303828393
:1039000053CF40E250E06FEF70E00E943E324CCF68
:1039100012968C911297811147CF80E2F801119293
:103920008A95E9F71C9211961C92119712961C9297
:103930003BCFA5E0B0E0EFE9FCE10C94E4319093DB
:10394000D3038093D203811520E2920730F40E94C2
:10395000F3062596E2E00C94003280EF89838A8397
:1039600081E08B830E94FA288160782F9D838C836D
:1039700049815A816B818D810E947308EACFA5E04D
:10398000B0E0E5ECFCE10C94E4319093D303809338
:10399000D203811520E2920730F40E940907259690
:1039A000E2E00C94003280EF89838A831B820E94BC
:1039B000FA288160782F9D838C8349815A816B819D
:1039C0008D810E947308EBCFCF93DF93EC010E94AF
:1039D000991CCE010E94BF1CDF91CF91089581E018
:1039E000089584E0089528E0629FB001112450E01A
:1039F000440F551F640F751F20E2829FC0011124E0
:103A0000860F971F879608950F931F93CF93DF9389
:103A10008430C8F46430B8F44430A8F40E94F31C35
:103A20008C010E944532C82FD0E0DC2FCC27C80182
:103A300001960E9445329E01282BC901DF91CF914A
:103A40001F910F91089590E080E0F8CF0F931F939E
:103A5000CF93DF93122F032F843078F4643068F40F
:103A6000443058F40E94F31CEC01602F0E94533242
:103A7000612FCE0101960E945332DF91CF911F91A9
:103A80000F910895FF920F931F93CF93DF93F42E1E
:103A9000843070F5623060F528E0829F8001112447
:103AA00034E0639FB0011124060F171F09551F4F03
:103AB00082E090E0442311F090E080E0800F911FBD
:103AC0000E944532C82FD0E0DC2FCC2783E090E065
:103AD000FF2011F081E090E0800F911F0E9445329D
:103AE0009E01282BC901CDB7DEB7E5E00C94FD316E
:103AF00090E080E0F8CF0F931F93CF93DF93142FC4
:103B0000022F843020F5623010F598E0899FE001A3
:103B1000112484E0689FB0011124C60FD71FC95536
:103B2000DF4F82E090E0442311F090E080E0632FCB
:103B30008C0F9D1F0E94533283E090E0112311F0FF
:103B400081E090E0602F8C0F9D1F0E945332DF9127
:103B5000CF911F910F910895B0E0A0E0E2EBFDE15D
:103B60000C94D73180900A0190900B0181E090E095
:103B700090930B0180930A018CEAC82E80E0D82E26
:103B80009CECE92E90E0F92ED0E0C0E08701612C9A
:103B90007C2E1CC00E94B40621E030E08C171D066C
:103BA00021F01CF0F50125913491452D662D872DCE
:103BB0000E94261D82E0A80EB11C539484E0581286
:103BC000E9CF6394085F1F4F681619F05801512C14
:103BD000E1CF560110E00E94B6068C171D0669F170
:103BE00064F1F5012591349141E0612F872D0E9408
:103BF0007B1DF50132962591349140E0612F872D90
:103C00000E947B1D84E0A80EB11C1130A1F4219606
:103C100088E0C80ED11C80E2E80EF11CC430D1054A
:103C200009F0B4CF90920B0180920A01CDB7DEB7B4
:103C3000EFE00C94F33111E0CECF21E030E041E031
:103C4000612F872D0E947B1D21E030E0D6CFEF92BF
:103C5000FF920F931F93CF93DF93EC018A017C01B6
:103C6000E60EF71ECE018796CE15DF0529F4CDB7F7
:103C7000DEB7E6E00C94FC31C038D10540F40E9478
:103C80004532F80180830F5F1F4F2196EBCFF8017B
:103C90001082F9CFB0E0A0E0E0E5FEE10C94DE3167
:103CA0008C016A018038910580F480E890E0801BE7
:103CB000910B8617970748F07801E60EF71EE8018A
:103CC000CE018796CE15DF0529F4CDB7DEB7E8E043
:103CD0000C94FA31C038D10540F4FE01E01BF10B21
:103CE000EC0DFD1D60810E9453322196E9CF209199
:103CF000850330918603232BC9F4703F39F4603F6C
:103D0000A9F48091D2039091D3030895843070F484
:103D1000743038F4643050F4462F672F0E94041D2D
:103D200008957D3F31F441E0623040F090E080E062
:103D300008957C3FD9F76230C8F740E00E94421DE9
:103D4000089580E1089589E393E00895EF92FF924A
:103D50000F931F93CF93DF93EC018A017C01E60E52
:103D6000F71ECE0189539F4FCE15DF0529F4CDB73D
:103D7000DEB7E6E00C94FC31C93323E0D20740F40F
:103D80000E944532F80180830F5F1F4F2196E9CFD3
:103D9000F8011082F9CFB0E0A0E0E1EDFEE10C9473
:103DA000DE317C016A018C01060F171FEC01CE0188
:103DB00089539F4FC017D10729F4CDB7DEB7E8E08C
:103DC0000C94FA31C93323E0D20740F4FE01EE1916
:103DD000FF09EC0DFD1D60810E9453322196E7CF53
:103DE000CF93DF93C7ECD0E060E0CE010E94533266
:103DF0002196C11584E0D807B9F7DF91CF910895D6
:103E0000A4E0B0E0E6E0FFE10C94DD31F82E2FE015
:103E1000281708F4A5C08FEF93E00E944532811166
:103E20009FC007EC10E0F11036C019821A821B8285
:103E30001C82BB24BA9478015FEFE51AF50AC80129
:103E40000E94453289831A82882309F489C081300F
:103E500009F07FC0680182E0C80ED11CC7010E9432
:103E60004532E82E8A83882309F47AC0C6010E946D
:103E70004532F82E8FEF8E0D8330D8F46801E3E0E1
:103E8000CE0ED11CFB82FF2021F0CE0101960E94B4
:103E9000E5218601D0CF011544E0140709F460C084
:103EA000C8010E944532811101C0FA940F5F1F4F73
:103EB000BACF8BEF8E0D833030F5C8010396FB82AD
:103EC0006C01FF2031F36801F4E0CF0ED11C0E9499
:103ED00045328C838823E9F28B819C8181302FEFDE
:103EE000920710F0982F882746E0E41631F057E04B
:103EF000E51631F00E94E41CCCCF0E94991CC9CF7A
:103F00000E94BF1CC6CF84E0E812C3CF6801E4E082
:103F1000CE0ED11CC80103960E944532FF2001F14C
:103F20008823F1F08150990BB89E9001B99E300D15
:103F300011244F2D4150550BCA01820F931F019739
:103F400008F4A7CFEFE9FFE03197F1F700C00000D8
:103F5000F6CF60E0CE0101960E947F21670199CFE4
:103F60002496E9E00C94F931CF93DF93EC01FB0147
:103F70008281882309F464C1C330FDE5DF07E0F5E1
:103F8000CA3F9CE5D90730F49E0122503C452431BC
:103F90003105D8F50E94B8119093C9038093C803E6
:103FA000C231ECE5DE0709F41FC108F06EC0C9306C
:103FB0008CE5D80709F4F2C008F03FC0C530ECE545
:103FC000DE0709F4DBC058F5C3308CE5D80709F4E7
:103FD000CDC008F0CFC08091C8038160C230DC45FD
:103FE00009F4AEC08091C8039091C9030E94C61124
:103FF0000E94FE0B80E009C0C53AEDE5DE0751F2F4
:1040000038F4C1369DE5D90729F2DF91CF910895A3
:104010009E012D5A3D4523303105B8F7BBCF809125
:10402000C8038062C730FCE5DF0709F489C008F4E3
:10403000B1C08091C803806483C0CD309CE5D907AE
:1040400009F4BAC070F48091C8038E7FCB30FCE5D0
:10405000DF0709F475C008F4A7C08091C8038D7FFD
:104060006FC0CF309CE5D90709F4B6C008F4A8C0EA
:10407000C031FCE5DF0709F4B3C0C131DC4509F00C
:10408000B1CF8091C8038F7B5BC0CF3F9CE5D90740
:1040900009F4B4C098F5CA3FFCE5DF0709F472C023
:1040A000B8F4C4319CE5D90709F4B6C008F4A2C03D
:1040B000C531DC4509F096CF8091C80382FB992772
:1040C00090F921E0922790FB82F990FB83F938C0A8
:1040D000CC3F8CE5D80709F477C008F457C0CD3F32
:1040E000ECE5DE0709F474C08091C9038360CE3F1C
:1040F000DC4509F077CF8093C90374CFC1368DE5D5
:10410000D80709F496C068F4C130EDE5DE0709F47C
:104110008CC008F477C0C230DD4509F063CF80E081
:1041200085C0CD3A9DE5D907E9F068F49091C803C0
:10413000892F8E7F90FF8160C53ADD4509F052CF0F
:104140008093C8034FCFCE3A8DE5D80789F1CF3A97
:10415000DD4509F047CF9091C903892F877F93FFF1
:104160008860C9CF8091C9038860C5CF8091C8039A
:104170008260E6CF8091C8038460E2CF8091C8035B
:104180008860DECF8091C9038160B5CF8091C9037B
:104190008260B1CF8091C8038061D2CF0E94FE0BB4
:1041A0008091C8038068CCCF8091C8038C60C8CF51
:1041B0008091C903877F9FCF8091C8038B7FC0CF39
:1041C0008091C803877FBCCF8091C9038E7F93CF36
:1041D0008091C9038D7F8FCF8091C8038F7EB0CF30
:1041E0008091C8038F7DACCF0E94FE0B8091C803E5
:1041F0008F77A6CF8091C803837FA2CF8091C90318
:104200008C7F79CF8091C903982F909591708E7F84
:10421000892B90FB81F96FCF0E94FE0B9091C80310
:10422000892F97FB87F980588BCF81E00E9452122B
:10423000D9CE9091C803892F8F7E94FF806180CF63
:1042400081E0E3CEB0E0A0E0E8E2F1E20C94DF31FF
:10425000E82FF0E0E052FD4FD490282F26952695C8
:10426000269530E0F901E058FC4F0491877010E08A
:10427000082E02C0159507950A94E2F701701127E0
:10428000F901E059FC4FE490F12C082E02C0F5949E
:10429000E7940A94E2F791E0E922FF24F901E05A59
:1042A000FC4FC491D0E002C0D595C7958A95E2F73E
:1042B000C170DD270115110519F081EE0E94BE08BD
:1042C000E114F10419F086EE0E94BE088D2D0E94C3
:1042D0005909E114F10419F086EE0E940F09011545
:1042E000110519F081EE0E940F09CD2B19F08CE217
:1042F0000E945909CDB7DEB7E7E00C94FB31EF928D
:10430000FF920F931F93CF93DF93EC01162F0AE0D8
:104310008881882309F454C0813009F04EC0898116
:10432000813099F47E0122E0E20EF11C8A810E9424
:104330005909E7012196812F815050F3EFE9FFE001
:104340003197F1F700C00000F7CF823041F47E01D1
:1043500082E0E80EF11C8A810E94BE08EACF833019
:1043600041F47E01E2E0EE0EF11C8A810E940F0909
:10437000E0CF843011F02196DDCF2A81229690E0A3
:1043800080E0AE014F5F5F4F2053330B2A30310581
:1043900048F0019778F2EFE9FFE03197F1F700C0BC
:1043A0000000F7CF089FB001099F700D1124C901CB
:1043B000860F971F2981EA01E4CF0E942221BACFFC
:1043C000CDB7DEB7E6E00C94FC3160E00E947F21BF
:1043D00008958FE891E00197F1F700C0000008957B
:1043E000FF920F931F93CF93DF9382E08093890313
:1043F0000DE911E0CBE9D1E0AE01D80121E030E0D8
:104400008D91E82FE295EF70F0E0F1A08F70B90187
:1044100001C0660F8A95EAF7962F90959F2191A388
:1044200082A1862B82A3FA018191AF01E82FE29548
:10443000EF70F0E0F1A08F70B90101C0660F8A95AE
:10444000EAF7962F90959F2191A382A1862B82A3B4
:10445000F1E0AF39BF07A1F60E94E921609189031D
:104460004CE853E0FA018E2F841B861728F0CDB755
:10447000DEB7E5E00C94FD31D8012D918D01A22F1E
:10448000A295AF70B0E090968C9190E02F7002C032
:10449000959587952A95E2F781709991A92FA29514
:1044A000AF70B0E090962C9130E09F7002C03595CF
:1044B00027959A95E2F790E020FD92E0892B819371
:1044C000D2CFA4E1B0E0E7E6F2E20C94D93110E0FB
:1044D00000E084E0C82ED12C9DEF992E882483948F
:1044E0002CEF722E80918903181728F0802F649684
:1044F000EDE00C94F531E12EF12CF701E356FE4F7F
:104500008081E82FE295EF70F0E0E0A1F0E08F709D
:1045100002C0F595E7958A95E2F7E170D701A556B7
:10452000BE4F2C91A22FA295AF70B0E090968C91C7
:1045300090E02F7002C0959587952A95E2F780FD4F
:1045400091C080E08E2BD701A457BC4FEC919E2FD9
:104550009370981709F484C0EE0FEE0FE82BEC93DC
:10456000EF70F0E0E557FE4FC70186579C4F5C01A6
:104570008081F5019081890F808320E084308CF167
:10458000F701E957FC4F80818F5F80830E94FA28F2
:104590001B877C868D868160782F9F878E87412F31
:1045A0005CEF61E08F850E9473088FE39FE10197C4
:1045B000F1F700C000000E94FA28188B798A1A8A45
:1045C0008160782F9C8B8B8B412F5CEF60E08C8916
:1045D0000E947308EFE3FFE13197F1F700C000009C
:1045E00021E0F50180818D3F8CF5F701E957FC4F03
:1045F0008081815080830E94FA2819839A828B825D
:104600008160782F9D838C83412F5DEF61E08D81E8
:104610000E9473088FE39FE10197F1F700C000004B
:104620000E94FA281E839F8218868160782F9A87BD
:104630008987412F5DEF60E08A850E947308EFE370
:10464000FFE13197F1F700C0000021E0F501808122
:10465000082E000C990BB6010E94B3318083022B07
:104660001F5F40CF82E06ECF809102011F928F9337
:10467000809103011F928F93809106011F928F9367
:10468000809107011F928F93809108011F928F9351
:10469000809109011F928F9380E993E09F938F93FC
:1046A0000E94AB068DB79EB70E960FB6F8949EBFCC
:1046B0000FBE8DBF0895883228F58E3108F072C084
:1046C0008B3041F130F4873009F4CFC08FEE94E0A5
:1046D000E0C0833109F45FC08431C1F781E195E026
:1046E0000E94120680919203882309F4FEC0109262
:1046F0009203109291031092900310928F031092E4
:104700008E0320C08F3409F4C7C0D8F5893231F345
:104710008833E1F684E195E00E9412060E9434237A
:104720001F9281E08F931F9288E08F938DE094E039
:104730009F938F930E94AB060F900F900F900F9056
:104740000F900F9020919203222309F4C9C0809109
:104750008E0390918F03009711F48FE991E09F935E
:104760008F931F922F938DED94E09F938F930E94D0
:10477000AB060F900F900F900F900F900F9081E06D
:104780000895813509F49CC008F49CC0823509F075
:104790009DCF81E082C083E095E00E9412060E94D6
:1047A0003423D0CF8D5180939203833009F442C0DB
:1047B00058F48130C1F08230A1F11092920380E070
:1047C00095E00E9412061BC0853009F445C0D8F15F
:1047D000863099F782E091E0909391038093900363
:1047E00087EE91E008C089E091E090939103809377
:1047F000900383EA91E090938F0380938E038091DE
:104800009203882309F49ECF1F928F938CEF94E03C
:104810009F938F930E94AB060F900F900F900F9075
:1048200091CF88E091E090939103809390038CEA7C
:1048300091E0E1CF87E091E0909391038093900322
:1048400088EB91E0D8CF86E091E09093910380933C
:10485000900385EC91E0CFCF83E091E090939103BA
:104860008093900384ED91E0C6CF81E080930901AD
:1048700084E1809308018AE0809307018EE18093B0
:10488000060188E08093030188E28093020182EFB1
:1048900094E00E94120656CF8AE0E0919003F091D6
:1048A00091033097D1F02081082E000C990B820FD4
:1048B000911D8F3F910541F03CF08FEF808307C041
:1048C0008FEFEBCF86EFE9CF97FFF8CF1082808193
:1048D0001F928F9389EE94E09BCF86EE94E0D9CF20
:1048E00089ED94E00E9412064ACF80E00895CF93AC
:1048F000C82F1F928F938AE295E09F938F930E9417
:10490000AB0681E001C0880FCA95EAF70E94510CFE
:104910000E94FE0B0F900F900F900F90CF91089573
:10492000B0E0A0E0E6E9F4E20C94DF31EBEFE80F51
:10493000EF3308F044C1F0E0ED55FD4C0C94C73165
:104940000E94B3111F928F938AED98E09F938F93EB
:104950000E94AB060E94AE1183FB992790F91F922B
:104960009F9382FB992790F91F929F9381FB992730
:1049700090F91F929F93982F91701F929F931F926F
:104980008F9381E998E09F938F930E94AB060E94DA
:10499000B81193FB222720F91F922F9387FB222720
:1049A00020F91F922F9386FB222720F91F922F9325
:1049B00085FB222720F91F922F9384FB222720F9C1
:1049C0001F922F9383FB222720F91F922F9382FBA4
:1049D000222720F91F922F9391FB222720F91F9263
:1049E0002F93292F21701F922F9381FB222720F9CB
:1049F0001F922F93282F21701F922F939F938F9395
:104A000082E997E09F938F930E94AB068DB79EB784
:104A10008A960FB6F8949EBF0FBE8DBF81E01CC072
:104A20008AE999E00E9412060E944F12F7CF8DED9D
:104A300095E00E941206F2CF80917203807F8093EE
:104A4000720386EB95E00E94120686E999E00E94C7
:104A5000120681E080939303CDB7DEB7E7E00C94B4
:104A6000FB318AE799E00E94120680910A01909139
:104A70000B01892B99F20E94AA07D0CF9091720363
:104A8000892F8E7F90FF81608093720380FF03C027
:104A90008EE699E0CECF81E699E00E9412068091E1
:104AA0007203817F80937203B9CF90917203892F33
:104AB0008D7F91FF82608093720381FF08C084E53F
:104AC00099E00E941206809172038160EBCF86E428
:104AD00099E0AFCF90917203892F8B7F92FF846012
:104AE0008093720382FF03C087E399E0EACF87E2F5
:104AF00099E09FCF90917203892F877F93FF886001
:104B00008093720383FF03C08BE199E0DACF8EE0DC
:104B100099E08FCF8CEF91E09F938F9383EB95E09B
:104B20009F938F930E94AB060F900F900F900F9062
:104B300075CF0E940629062FF72EE82ED92EC09198
:104B4000C803C7FBCC27C0F91091C703D091180147
:104B50000E942827DF92EF92FF920F931F92CF932C
:104B60001F921F931F92DF931F928F938FE295E006
:104B70009F938F930E94AB068DB79EB70E960FB68C
:104B8000F8949EBF0FBE8DBF49CF0E94FE0B90913F
:104B9000C803892F97FB87F980588093C80387FF44
:104BA00003C084E099E045CF89EF98E042CF80E0F0
:104BB0000E94772433CF8953FBCF8D51F9CF87EFF4
:104BC00098E00E94120680E047CF80E008950E949E
:104BD000E5250895CF93C82F809193038130C1F0CC
:104BE000882339F0823009F444C01092930380E0A6
:104BF0000DC00E9488108232D1F78C2F0E94E525CB
:104C000081111BC08C2F0E9490248170CF91089538
:104C10000E948810823289F38C2F0E94E72581112F
:104C20001BC0C431D9F060F4CB3071F0C031D1F089
:104C300084E295E00E94120613C081E090E0E5CF87
:104C4000C93261F0C833A1F786EB95E00E941206E5
:104C500086E295E00E94120681E0D7CF109293037E
:104C600080E0D3CF82E08093930388E30E945B23AC
:104C7000F3CF8C2F0E945B2381E0C8CFCF93DF93CB
:104C8000EB0186319C4511F50E9488109A81992389
:104C900099F08A7A91E009F490E09093940381115D
:104CA00009C089E20E9438100E94E41080E0DF9180
:104CB000CF91089585E3F6CF80919403811104C0CC
:104CC00089E20E944010F0CF85E3FBCF81E0EFCF77
:104CD0000F931F93CF93DF93C42FD22FFC018281B8
:104CE0008823C9F0409397030E94FA289093960373
:104CF0008093950380E28C0F883040F4C77081E088
:104D000001C0880FCA95EAF70E946209DF91CF912E
:104D10001F910F91089510919703141332C0809141
:104D20009503909196030E941229883C910548F5BD
:104D3000C0E2CD0F1D17B9F080E2810F883040F43A
:104D4000177081E001C0880F1A95EAF70E9469097F
:104D5000C83048F481E09D2F977001C0880F9A9564
:104D6000EAF70E946209802F0E945909C83070F644
:104D7000D77081E001C0880FDA95EAF70E946909CF
:104D8000C5CF80E28C0F883008F6C77081E001C083
:104D9000880FCA95EAF7F2CF0F939C01CB01233F0E
:104DA0004CE5340759F1A8F4283DFCE53F0701F133
:104DB000293D4CE53407D1F1273D3C4591F406E20D
:104DC00021EE41EE67ED7CE50E94682680E00F91C0
:104DD0000895253FFCE53F07E9F0B0F0263F3C454C
:104DE000F9F0FC018281882339F110929703EFCF0B
:104DF00007E225EE45EE68ED7CE5E6CF06E221EE22
:104E000040EE63EF7CE5E0CF07E225EE44EE64EF91
:104E10007CE5DACF06E221EE42EE65EF7CE5D4CF09
:104E200007E225EE46EE66EF7CE5CECF08E221E014
:104E300045EE69ED7CE5C8CF81E0C9CF9093CD0206
:104E40008093CC02089590939D0380939C030895D2
:104E5000E0919C03F0919D03309729F00190F0813F
:104E6000E02D0995089580E00895E0919C03F0916C
:104E70009D03309799F020911801222359F0209139
:104E8000C80327FF07C0DC012C9111962C931197C2
:104E900026E02C930280F381E02D09950895E0919E
:104EA0009C03F0919D03309739F022E0DC012C93B4
:104EB0000480F581E02D0995089520919A033091A1
:104EC0009B032817390771F090939B0380939A03F3
:104ED000E0919C03F0919D03309721F00680F781CB
:104EE000E02D099508952091980330919903281792
:104EF000390771F09093990380939803E0919C0394
:104F0000F0919D03309721F00084F185E02D099503
:104F10000895FC01329680911801882321F0809138
:104F2000C8039EE187FF96E080E0915008F4089561
:104F300021912223D1F38F5FF8CF662301F12091D5
:104F400018012223F1F02091C80327FF1AC0462F31
:104F50004695469546954E3190F4677021E030E0D5
:104F600002C0220F331F6A95E2F7840F911DFC01E6
:104F7000828190E02823392381E0232B69F480E0AB
:104F80000895FC01329608962191261721F0E81722
:104F9000F907D1F7F4CF81E008959C01FC01329626
:104FA0009FEF80E04191461751F09F3F19F4411166
:104FB00001C0982F8F5F8630A9F79F3F09F40895AD
:104FC000290F311D97FD3A95F90162830895FC017F
:104FD000329608962191261303C0DF0111971C9287
:104FE000E817F907B9F70895E62FE695E695E695EF
:104FF000EE3168F4E80FF92FF11D677021E030E021
:1050000001C0220F6A95EAF78281822B828308957C
:10501000E62FE695E695E695EE3170F4E80FF92F68
:10502000F11D677021E030E001C0220F6A95EAF7B8
:10503000209582812823228308952091180122231C
:1050400039F02091C80327FF03C00E94F427089578
:105050000E94CD27089520911801222339F0209134
:10506000C80327FF03C00E94082808950E94E7276D
:105070000895FC01329680911801882351F08091A7
:10508000C80387FF06C08EE1DF011D928A95E9F70C
:10509000089586E0F9CF46E050E00E94283221E0F2
:1050A000892B09F420E0822F089508950E94552845
:1050B0000895811106C081E080939E030E945628C6
:1050C000089582E0F9CF83E080939E030E945628E2
:1050D00008950E945928089581E080939E030E94BC
:1050E000562808950E946C280895089508950E94F6
:1050F00076280895089508950E9475280895CF93FD
:105100000E947A280E9442160E947B28C0E08C2FC1
:105110000E944E15811105C0CF5FC430C1F7CF91F9
:10512000089581E0FCCF85B7806885BF85B780682A
:1051300085BF08951F921FB61F9211248F939F93CE
:10514000AF93BF9380919F03811113C08091D403CB
:105150009091D503A091D603B091D7034196A11D9C
:10516000B11D8093D4039093D503A093D603B0933D
:10517000D703BF91AF919F918F911F901FBE1F903A
:1051800018958091DC03843031F10E941C08109244
:105190009F0388E190E020E40FB6F894A8958093EF
:1051A00060000FBE2093600083B7817F846083BF5F
:1051B00083B7816083BF7894889583B78E7F83BFE0
:1051C0000FB6F894A8958091600088618093600084
:1051D000109260000FBE08950E94FE0B0E942108ED
:1051E000089582E084BD93E095BD9AEF97BD8093CA
:1051F0006E0008952FB7F8948091D4039091D50351
:10520000A091D603B091D7032FBF08952FB7F8947C
:105210006091D4037091D5038091D6039091D70308
:105220002FBF08959C014FB7F8948091D4039091BB
:10523000D503A091D603B091D7034FBF821B930B28
:10524000089578941F921FB61F9211248F939F93F5
:10525000AF93BF938091D4039091D503A091D603CF
:10526000B091D7030196A11DB11D8093D4039093F3
:10527000D503A093D603B093D703BF91AF919F916D
:105280008F911F901FBE1F90189587E797E7909307
:1052900001088093000888E19AE00FB6F894A89579
:1052A000809360000FBE90936000FFCF88E19AE08A
:1052B0000FB6F894A895809360000FBE909360009D
:1052C000FFCF8091C603089508959C0184E08093E8
:1052D000E9009FEF8091E800915085FD06C085EDC3
:1052E0008A95F1F700009111F5CF8091E80085FFD4
:1052F0000CC050E040E066E070E0C9010E94D22C92
:105300008091E8008E778093E8000895CF93DF9333
:10531000EC01809118018823B1F18091C80387FFC7
:1053200032C060E284E08093E9008FEF9091E80062
:10533000815095FD06C095ED9A95F1F70000811119
:10534000F5CF8091E80085FF1BC08091180170E0C7
:1053500050E040E0811104C050E040E068E070E0BF
:10536000CE010E94D22C8091E8008E778093E800D5
:1053700080E2FE01A6EAB3E001900D928A95E1F782
:10538000DF91CF91089568E081E0CDCF8093A203B3
:105390007093A4036093A3038091DC038430F9F439
:1053A0008093E9008FEF9091E800815095FD06C051
:1053B00095ED9A95F1F700008111F5CF8091E80005
:1053C00085FF0DC050E040E063E070E082EA93E0CA
:1053D0000E94D22C8091E8008E778093E800089597
:1053E000BC0184E00E94C6290895BC0183E00E94AC
:1053F000C6290895CF93FC01603221F58091DC032A
:10540000843001F5C091E900CF702091EC00922F1B
:10541000917020FD90E8C92B82E08093E900809193
:10542000E80080FF0CC050E040E060E270E0CF0197
:105430000E94D22C8091E8008E778093E800CF7094
:10544000C093E900CF9108958FEB99E00E94120676
:105450008091DB03811109C00E94B12E0E940E2FA2
:105460008091E20084608093E20008958BEB99E0E4
:105470000E9412061092DB03089587EB99E00E94C8
:1054800012060E946C28089583EB99E00E94120690
:105490006091D80381E0611101C080E00E9463281F
:1054A00008958FEA99E00E9412069091DC0381E052
:1054B000943009F080E06091D8030E946928089533
:1054C0002091A1032F5F822F62E30E94A7319923CD
:1054D00019F02093A10308951092A1038091A503D0
:1054E0008823F1F08091DC038430C1F49091E900CD
:1054F0009F702091EC00822F817020FD80E8892B25
:1055000095E09093E9009091EB0090FF04C090919A
:10551000EE0097FD08C08F708093E9001092A503FC
:1055200008951092F1009091E80095FDFACF9091C6
:10553000E80090FFF0CF9091E8009E779093E8000C
:10554000EACF42E061EC81E00E942D2E42E261EC64
:1055500084E00E942D2E42E261EC82E00E942D2E1A
:1055600042E260EC83E00E942D2E42E261EC85E095
:105570000E942D2E9091DC0381E0943009F080E0B0
:105580006091D8030E94592808958091DE038330EA
:1055900009F463C030F48130E1F1823009F4A0C035
:1055A00008958A3009F48CC08B3009F471C08930B9
:1055B00009F052C08091DD03813209F04DC0809125
:1055C000E1039091E203009719F0029709F044C0BB
:1055D0008091E800877F8093E8008091E80082FF57
:1055E00037C09091F3008091F200029731F48091DE
:1055F000F100813011F0863021F48091F100809328
:10560000C6038091E8008B778093E8000E94612EAA
:1056100023C08091DD03813AF9F48091E800877F0F
:105620008093E8008091E1039091E203892B61F47B
:1056300060E286EA93E070E00E94702D8091E800BD
:105640008B778093E800089560E090E080E0F3CFEE
:105650008091DC038111C1CF08958091DD03813AEF
:10566000D9F78091E1039091E203892BA9F780910A
:10567000E800877F8093E8008091E80080FFFCCFFE
:10568000809118018093F1008091E8008E77BCCF63
:105690008091DD03813201F78091E1039091E20373
:1056A000892BD1F68091E800877F8093E8000E94E3
:1056B000612E8091DF03809318010E94FE0B0895F4
:1056C0008091DD03813241F68091E800877F8093ED
:1056D000E8000E94612E8091E0038093C703089543
:1056E0008091DD03813A09F0B7CF8091E800877F90
:1056F0008093E8008091E80080FFFCCF8091C70391
:10570000C1CF9FB7F8941092A5039FBF9091DC037F
:10571000943009F048C02091E9002F703091EC00DE
:10572000932F917030FD90E8922B25E02093E900B3
:105730002091EB0020FF34C02091EE0027FF30C005
:105740002091A003222321F02091E80025FF28C00A
:105750001092A00326E03091E80035FF14C080933A
:10576000F1008091E80085FD27C08091E80080FF6E
:10577000FCCF8091E8008E778093E8009F70909333
:10578000E90080E008953091DC03343049F4309131
:10579000EB0035FD05C0215041F481E08093A0036A
:1057A0009F709093E9008FEF0895EFE9FFE0319744
:1057B000F1F700C00000CFCF8FB7F89421E020931D
:1057C000A5038FBFDBCF84B7877F84BF0FB6F89464
:1057D000A8958091600088618093600010926000BD
:1057E0000FBE80E890E00FB6F8948093610090932C
:1057F00061000FBE0E94722808950E94B12E0E947F
:105800000E2FE2EEF0E080818460808378940E9425
:105810008C3108958CE091E00E94232708958091B7
:10582000DC03853051F48BEA99E00E9412068091E6
:10583000DC03853019F00E94EC2808950E94C128ED
:105840008091DA03882399F30E947F28882379F3D3
:105850000E94BC2C0E94FE0BEACFA0E2B0E0E3E382
:10586000FCE20C94E4318091DC03843009F583E0A0
:105870008093E9008091E80082FF1AC08091E800DF
:1058800090E085FF09C050E040E060E270E0CE01AA
:1058900001960E94212D91E08091E8008B77809302
:1058A000E800992329F060E2CE0101960E94971A40
:1058B000A096E2E00C9400320E945F2C0895292FFC
:1058C00033272330310521F168F42130310509F403
:1058D00049C02230310509F44AC090E080E030E050
:1058E00020E029C02132310581F122323105A9F7AA
:1058F0006430710590F7FB01EE0FFF1FE554FD4F7B
:105900002081318169547D4FFB01808190E013C07B
:1059100099278130910599F0009741F082309105E7
:1059200089F00397D1F6E3ECF9E002C0EDEFF9E07E
:10593000849190E09F01FA01318320830895E1EF83
:10594000F9E0F6CFE1EEF9E0F3CF6430710528F627
:10595000660F771FFB01ED53FD4F2081318189E0F8
:1059600090E0E9CF82E190E02CE73AE0E4CF8BE7EA
:1059700090E021E03AE0DFCF80E189BD82E189BD9E
:1059800009B400FEFDCF8091D8008F7D8093D800B0
:105990008091E00082608093E0008091E00081FDD2
:1059A000FCCF0895AF92BF92CF92DF92FF920F93F8
:1059B0001F93CF93DF936C01EB018A010E94802E2D
:1059C000F82E811123C00115110539F0F8018081ED
:1059D0009181C81BD90BC80ED91EB12CA12C2097C0
:1059E000A9F08091E80085FD22C08091E8008E77C3
:1059F0008093E80001151105A1F0F80180819181E3
:105A0000A80EB91EB182A08285E0F82E8F2DDF91FD
:105A1000CF911F910F91FF90DF90CF90BF90AF90EB
:105A200008950E94802E8823D1F2F82EEFCFF60140
:105A300081916F018093F1002197FFEFAF1ABF0AA8
:105A4000CECFAF92BF92CF92DF92FF920F931F9370
:105A5000CF93DF936C01EB018A010E94802EF82E18
:105A6000811123C00115110539F0F8018081918160
:105A7000C81BD90BC80ED91EB12CA12C2097A9F098
:105A80008091E80085FD22C08091E8008B778093AB
:105A9000E80001151105A1F0F80180819181A80E9F
:105AA000B91EB182A08285E0F82E8F2DDF91CF91B3
:105AB0001F910F91FF90DF90CF90BF90AF9008950E
:105AC0000E94802E8823D1F2F82EEFCF8091F10032
:105AD000F60181936F012197FFEFAF1ABF0ACECF76
